{
  "_format": "hh-sol-artifact-1",
  "contractName": "CoinToken",
  "sourceName": "contracts/PassiveInu.sol",
  "abi": [
    {
      "inputs": [
        {
          "internalType": "string",
          "name": "name_",
          "type": "string"
        },
        {
          "internalType": "string",
          "name": "symbol_",
          "type": "string"
        },
        {
          "internalType": "uint256",
          "name": "totalSupply_",
          "type": "uint256"
        },
        {
          "internalType": "address[4]",
          "name": "addrs",
          "type": "address[4]"
        },
        {
          "internalType": "uint256[4]",
          "name": "buyFeeSetting_",
          "type": "uint256[4]"
        },
        {
          "internalType": "uint256[4]",
          "name": "sellFeeSetting_",
          "type": "uint256[4]"
        },
        {
          "internalType": "uint256",
          "name": "tokenBalanceForReward_",
          "type": "uint256"
        },
        {
          "internalType": "address",
          "name": "taxWhitelistNFT_",
          "type": "address"
        }
      ],
      "stateMutability": "payable",
      "type": "constructor"
    },
    {
      "anonymous": false,
      "inputs": [
        {
          "indexed": true,
          "internalType": "address",
          "name": "owner",
          "type": "address"
        },
        {
          "indexed": true,
          "internalType": "address",
          "name": "spender",
          "type": "address"
        },
        {
          "indexed": false,
          "internalType": "uint256",
          "name": "value",
          "type": "uint256"
        }
      ],
      "name": "Approval",
      "type": "event"
    },
    {
      "anonymous": false,
      "inputs": [
        {
          "indexed": true,
          "internalType": "address",
          "name": "account",
          "type": "address"
        },
        {
          "indexed": false,
          "internalType": "bool",
          "name": "isExcluded",
          "type": "bool"
        }
      ],
      "name": "ExcludeFromFees",
      "type": "event"
    },
    {
      "anonymous": false,
      "inputs": [
        {
          "indexed": false,
          "internalType": "address[]",
          "name": "accounts",
          "type": "address[]"
        },
        {
          "indexed": false,
          "internalType": "bool",
          "name": "isExcluded",
          "type": "bool"
        }
      ],
      "name": "ExcludeMultipleAccountsFromFees",
      "type": "event"
    },
    {
      "anonymous": false,
      "inputs": [
        {
          "indexed": true,
          "internalType": "uint256",
          "name": "newValue",
          "type": "uint256"
        },
        {
          "indexed": true,
          "internalType": "uint256",
          "name": "oldValue",
          "type": "uint256"
        }
      ],
      "name": "GasForProcessingUpdated",
      "type": "event"
    },
    {
      "anonymous": false,
      "inputs": [
        {
          "indexed": true,
          "internalType": "address",
          "name": "newLiquidityWallet",
          "type": "address"
        },
        {
          "indexed": true,
          "internalType": "address",
          "name": "oldLiquidityWallet",
          "type": "address"
        }
      ],
      "name": "LiquidityWalletUpdated",
      "type": "event"
    },
    {
      "anonymous": false,
      "inputs": [
        {
          "indexed": true,
          "internalType": "address",
          "name": "previousOwner",
          "type": "address"
        },
        {
          "indexed": true,
          "internalType": "address",
          "name": "newOwner",
          "type": "address"
        }
      ],
      "name": "OwnershipTransferred",
      "type": "event"
    },
    {
      "anonymous": false,
      "inputs": [
        {
          "indexed": false,
          "internalType": "uint256",
          "name": "iterations",
          "type": "uint256"
        },
        {
          "indexed": false,
          "internalType": "uint256",
          "name": "claims",
          "type": "uint256"
        },
        {
          "indexed": false,
          "internalType": "uint256",
          "name": "lastProcessedIndex",
          "type": "uint256"
        },
        {
          "indexed": true,
          "internalType": "bool",
          "name": "automatic",
          "type": "bool"
        },
        {
          "indexed": false,
          "internalType": "uint256",
          "name": "gas",
          "type": "uint256"
        },
        {
          "indexed": true,
          "internalType": "address",
          "name": "processor",
          "type": "address"
        }
      ],
      "name": "ProcessedDividendTracker",
      "type": "event"
    },
    {
      "anonymous": false,
      "inputs": [
        {
          "indexed": false,
          "internalType": "uint256",
          "name": "tokensSwapped",
          "type": "uint256"
        },
        {
          "indexed": false,
          "internalType": "uint256",
          "name": "amount",
          "type": "uint256"
        }
      ],
      "name": "SendDividends",
      "type": "event"
    },
    {
      "anonymous": false,
      "inputs": [
        {
          "indexed": true,
          "internalType": "address",
          "name": "pair",
          "type": "address"
        },
        {
          "indexed": true,
          "internalType": "bool",
          "name": "value",
          "type": "bool"
        }
      ],
      "name": "SetAutomatedMarketMakerPair",
      "type": "event"
    },
    {
      "anonymous": false,
      "inputs": [
        {
          "indexed": false,
          "internalType": "uint256",
          "name": "tokensSwapped",
          "type": "uint256"
        },
        {
          "indexed": false,
          "internalType": "uint256",
          "name": "ethReceived",
          "type": "uint256"
        },
        {
          "indexed": false,
          "internalType": "uint256",
          "name": "tokensIntoLiqudity",
          "type": "uint256"
        }
      ],
      "name": "SwapAndLiquify",
      "type": "event"
    },
    {
      "anonymous": false,
      "inputs": [
        {
          "indexed": true,
          "internalType": "address",
          "name": "from",
          "type": "address"
        },
        {
          "indexed": true,
          "internalType": "address",
          "name": "to",
          "type": "address"
        },
        {
          "indexed": false,
          "internalType": "uint256",
          "name": "value",
          "type": "uint256"
        }
      ],
      "name": "Transfer",
      "type": "event"
    },
    {
      "anonymous": false,
      "inputs": [
        {
          "indexed": true,
          "internalType": "address",
          "name": "newAddress",
          "type": "address"
        },
        {
          "indexed": true,
          "internalType": "address",
          "name": "oldAddress",
          "type": "address"
        }
      ],
      "name": "UpdateDividendTracker",
      "type": "event"
    },
    {
      "anonymous": false,
      "inputs": [
        {
          "indexed": true,
          "internalType": "address",
          "name": "newAddress",
          "type": "address"
        },
        {
          "indexed": true,
          "internalType": "address",
          "name": "oldAddress",
          "type": "address"
        }
      ],
      "name": "UpdateUniswapV2Router",
      "type": "event"
    },
    {
      "inputs": [],
      "name": "AmountLiquidityFee",
      "outputs": [
        {
          "internalType": "uint256",
          "name": "",
          "type": "uint256"
        }
      ],
      "stateMutability": "view",
      "type": "function"
    },
    {
      "inputs": [],
      "name": "AmountMarketingFee",
      "outputs": [
        {
          "internalType": "uint256",
          "name": "",
          "type": "uint256"
        }
      ],
      "stateMutability": "view",
      "type": "function"
    },
    {
      "inputs": [],
      "name": "AmountTokenRewardsFee",
      "outputs": [
        {
          "internalType": "uint256",
          "name": "",
          "type": "uint256"
        }
      ],
      "stateMutability": "view",
      "type": "function"
    },
    {
      "inputs": [
        {
          "internalType": "address",
          "name": "account",
          "type": "address"
        },
        {
          "internalType": "bool",
          "name": "value",
          "type": "bool"
        }
      ],
      "name": "EnemyAddress",
      "outputs": [],
      "stateMutability": "nonpayable",
      "type": "function"
    },
    {
      "inputs": [
        {
          "internalType": "address",
          "name": "",
          "type": "address"
        }
      ],
      "name": "_isEnemy",
      "outputs": [
        {
          "internalType": "bool",
          "name": "",
          "type": "bool"
        }
      ],
      "stateMutability": "view",
      "type": "function"
    },
    {
      "inputs": [],
      "name": "_marketingWalletAddress",
      "outputs": [
        {
          "internalType": "address",
          "name": "",
          "type": "address"
        }
      ],
      "stateMutability": "view",
      "type": "function"
    },
    {
      "inputs": [],
      "name": "_taxWhitelistNFT",
      "outputs": [
        {
          "internalType": "address",
          "name": "",
          "type": "address"
        }
      ],
      "stateMutability": "view",
      "type": "function"
    },
    {
      "inputs": [
        {
          "internalType": "address",
          "name": "owner",
          "type": "address"
        },
        {
          "internalType": "address",
          "name": "spender",
          "type": "address"
        }
      ],
      "name": "allowance",
      "outputs": [
        {
          "internalType": "uint256",
          "name": "",
          "type": "uint256"
        }
      ],
      "stateMutability": "view",
      "type": "function"
    },
    {
      "inputs": [
        {
          "internalType": "address",
          "name": "spender",
          "type": "address"
        },
        {
          "internalType": "uint256",
          "name": "amount",
          "type": "uint256"
        }
      ],
      "name": "approve",
      "outputs": [
        {
          "internalType": "bool",
          "name": "",
          "type": "bool"
        }
      ],
      "stateMutability": "nonpayable",
      "type": "function"
    },
    {
      "inputs": [
        {
          "internalType": "address",
          "name": "",
          "type": "address"
        }
      ],
      "name": "automatedMarketMakerPairs",
      "outputs": [
        {
          "internalType": "bool",
          "name": "",
          "type": "bool"
        }
      ],
      "stateMutability": "view",
      "type": "function"
    },
    {
      "inputs": [
        {
          "internalType": "address",
          "name": "account",
          "type": "address"
        }
      ],
      "name": "balanceOf",
      "outputs": [
        {
          "internalType": "uint256",
          "name": "",
          "type": "uint256"
        }
      ],
      "stateMutability": "view",
      "type": "function"
    },
    {
      "inputs": [],
      "name": "buyDeadFee",
      "outputs": [
        {
          "internalType": "uint256",
          "name": "",
          "type": "uint256"
        }
      ],
      "stateMutability": "view",
      "type": "function"
    },
    {
      "inputs": [],
      "name": "buyLiquidityFee",
      "outputs": [
        {
          "internalType": "uint256",
          "name": "",
          "type": "uint256"
        }
      ],
      "stateMutability": "view",
      "type": "function"
    },
    {
      "inputs": [],
      "name": "buyMarketingFee",
      "outputs": [
        {
          "internalType": "uint256",
          "name": "",
          "type": "uint256"
        }
      ],
      "stateMutability": "view",
      "type": "function"
    },
    {
      "inputs": [],
      "name": "buyTokenRewardsFee",
      "outputs": [
        {
          "internalType": "uint256",
          "name": "",
          "type": "uint256"
        }
      ],
      "stateMutability": "view",
      "type": "function"
    },
    {
      "inputs": [],
      "name": "claim",
      "outputs": [],
      "stateMutability": "nonpayable",
      "type": "function"
    },
    {
      "inputs": [],
      "name": "deadWallet",
      "outputs": [
        {
          "internalType": "address",
          "name": "",
          "type": "address"
        }
      ],
      "stateMutability": "view",
      "type": "function"
    },
    {
      "inputs": [],
      "name": "decimals",
      "outputs": [
        {
          "internalType": "uint8",
          "name": "",
          "type": "uint8"
        }
      ],
      "stateMutability": "view",
      "type": "function"
    },
    {
      "inputs": [
        {
          "internalType": "address",
          "name": "spender",
          "type": "address"
        },
        {
          "internalType": "uint256",
          "name": "subtractedValue",
          "type": "uint256"
        }
      ],
      "name": "decreaseAllowance",
      "outputs": [
        {
          "internalType": "bool",
          "name": "",
          "type": "bool"
        }
      ],
      "stateMutability": "nonpayable",
      "type": "function"
    },
    {
      "inputs": [
        {
          "internalType": "address",
          "name": "account",
          "type": "address"
        }
      ],
      "name": "dividendTokenBalanceOf",
      "outputs": [
        {
          "internalType": "uint256",
          "name": "",
          "type": "uint256"
        }
      ],
      "stateMutability": "view",
      "type": "function"
    },
    {
      "inputs": [],
      "name": "dividendTracker",
      "outputs": [
        {
          "internalType": "contract TokenDividendTracker",
          "name": "",
          "type": "address"
        }
      ],
      "stateMutability": "view",
      "type": "function"
    },
    {
      "inputs": [
        {
          "internalType": "address",
          "name": "account",
          "type": "address"
        }
      ],
      "name": "excludeFromDividends",
      "outputs": [],
      "stateMutability": "nonpayable",
      "type": "function"
    },
    {
      "inputs": [
        {
          "internalType": "address",
          "name": "account",
          "type": "address"
        },
        {
          "internalType": "bool",
          "name": "excluded",
          "type": "bool"
        }
      ],
      "name": "excludeFromFees",
      "outputs": [],
      "stateMutability": "nonpayable",
      "type": "function"
    },
    {
      "inputs": [
        {
          "internalType": "address[]",
          "name": "accounts",
          "type": "address[]"
        },
        {
          "internalType": "bool",
          "name": "excluded",
          "type": "bool"
        }
      ],
      "name": "excludeMultipleAccountsFromFees",
      "outputs": [],
      "stateMutability": "nonpayable",
      "type": "function"
    },
    {
      "inputs": [],
      "name": "gasForProcessing",
      "outputs": [
        {
          "internalType": "uint256",
          "name": "",
          "type": "uint256"
        }
      ],
      "stateMutability": "view",
      "type": "function"
    },
    {
      "inputs": [
        {
          "internalType": "address",
          "name": "account",
          "type": "address"
        }
      ],
      "name": "getAccountDividendsInfo",
      "outputs": [
        {
          "internalType": "address",
          "name": "",
          "type": "address"
        },
        {
          "internalType": "int256",
          "name": "",
          "type": "int256"
        },
        {
          "internalType": "int256",
          "name": "",
          "type": "int256"
        },
        {
          "internalType": "uint256",
          "name": "",
          "type": "uint256"
        },
        {
          "internalType": "uint256",
          "name": "",
          "type": "uint256"
        },
        {
          "internalType": "uint256",
          "name": "",
          "type": "uint256"
        },
        {
          "internalType": "uint256",
          "name": "",
          "type": "uint256"
        },
        {
          "internalType": "uint256",
          "name": "",
          "type": "uint256"
        }
      ],
      "stateMutability": "view",
      "type": "function"
    },
    {
      "inputs": [
        {
          "internalType": "uint256",
          "name": "index",
          "type": "uint256"
        }
      ],
      "name": "getAccountDividendsInfoAtIndex",
      "outputs": [
        {
          "internalType": "address",
          "name": "",
          "type": "address"
        },
        {
          "internalType": "int256",
          "name": "",
          "type": "int256"
        },
        {
          "internalType": "int256",
          "name": "",
          "type": "int256"
        },
        {
          "internalType": "uint256",
          "name": "",
          "type": "uint256"
        },
        {
          "internalType": "uint256",
          "name": "",
          "type": "uint256"
        },
        {
          "internalType": "uint256",
          "name": "",
          "type": "uint256"
        },
        {
          "internalType": "uint256",
          "name": "",
          "type": "uint256"
        },
        {
          "internalType": "uint256",
          "name": "",
          "type": "uint256"
        }
      ],
      "stateMutability": "view",
      "type": "function"
    },
    {
      "inputs": [],
      "name": "getClaimWait",
      "outputs": [
        {
          "internalType": "uint256",
          "name": "",
          "type": "uint256"
        }
      ],
      "stateMutability": "view",
      "type": "function"
    },
    {
      "inputs": [],
      "name": "getLastProcessedIndex",
      "outputs": [
        {
          "internalType": "uint256",
          "name": "",
          "type": "uint256"
        }
      ],
      "stateMutability": "view",
      "type": "function"
    },
    {
      "inputs": [],
      "name": "getNumberOfDividendTokenHolders",
      "outputs": [
        {
          "internalType": "uint256",
          "name": "",
          "type": "uint256"
        }
      ],
      "stateMutability": "view",
      "type": "function"
    },
    {
      "inputs": [],
      "name": "getTotalDividendsDistributed",
      "outputs": [
        {
          "internalType": "uint256",
          "name": "",
          "type": "uint256"
        }
      ],
      "stateMutability": "view",
      "type": "function"
    },
    {
      "inputs": [
        {
          "internalType": "address",
          "name": "spender",
          "type": "address"
        },
        {
          "internalType": "uint256",
          "name": "addedValue",
          "type": "uint256"
        }
      ],
      "name": "increaseAllowance",
      "outputs": [
        {
          "internalType": "bool",
          "name": "",
          "type": "bool"
        }
      ],
      "stateMutability": "nonpayable",
      "type": "function"
    },
    {
      "inputs": [
        {
          "internalType": "address",
          "name": "account",
          "type": "address"
        }
      ],
      "name": "isExcludedFromDividends",
      "outputs": [
        {
          "internalType": "bool",
          "name": "",
          "type": "bool"
        }
      ],
      "stateMutability": "view",
      "type": "function"
    },
    {
      "inputs": [
        {
          "internalType": "address",
          "name": "account",
          "type": "address"
        }
      ],
      "name": "isExcludedFromFees",
      "outputs": [
        {
          "internalType": "bool",
          "name": "",
          "type": "bool"
        }
      ],
      "stateMutability": "view",
      "type": "function"
    },
    {
      "inputs": [],
      "name": "name",
      "outputs": [
        {
          "internalType": "string",
          "name": "",
          "type": "string"
        }
      ],
      "stateMutability": "view",
      "type": "function"
    },
    {
      "inputs": [],
      "name": "owner",
      "outputs": [
        {
          "internalType": "address",
          "name": "",
          "type": "address"
        }
      ],
      "stateMutability": "view",
      "type": "function"
    },
    {
      "inputs": [
        {
          "internalType": "uint256",
          "name": "gas",
          "type": "uint256"
        }
      ],
      "name": "processDividendTracker",
      "outputs": [],
      "stateMutability": "nonpayable",
      "type": "function"
    },
    {
      "inputs": [],
      "name": "renounceOwnership",
      "outputs": [],
      "stateMutability": "nonpayable",
      "type": "function"
    },
    {
      "inputs": [],
      "name": "rewardToken",
      "outputs": [
        {
          "internalType": "address",
          "name": "",
          "type": "address"
        }
      ],
      "stateMutability": "view",
      "type": "function"
    },
    {
      "inputs": [],
      "name": "sellDeadFee",
      "outputs": [
        {
          "internalType": "uint256",
          "name": "",
          "type": "uint256"
        }
      ],
      "stateMutability": "view",
      "type": "function"
    },
    {
      "inputs": [],
      "name": "sellLiquidityFee",
      "outputs": [
        {
          "internalType": "uint256",
          "name": "",
          "type": "uint256"
        }
      ],
      "stateMutability": "view",
      "type": "function"
    },
    {
      "inputs": [],
      "name": "sellMarketingFee",
      "outputs": [
        {
          "internalType": "uint256",
          "name": "",
          "type": "uint256"
        }
      ],
      "stateMutability": "view",
      "type": "function"
    },
    {
      "inputs": [],
      "name": "sellTokenRewardsFee",
      "outputs": [
        {
          "internalType": "uint256",
          "name": "",
          "type": "uint256"
        }
      ],
      "stateMutability": "view",
      "type": "function"
    },
    {
      "inputs": [
        {
          "internalType": "address",
          "name": "pair",
          "type": "address"
        },
        {
          "internalType": "bool",
          "name": "value",
          "type": "bool"
        }
      ],
      "name": "setAutomatedMarketMakerPair",
      "outputs": [],
      "stateMutability": "nonpayable",
      "type": "function"
    },
    {
      "inputs": [
        {
          "internalType": "uint256",
          "name": "liquidity",
          "type": "uint256"
        },
        {
          "internalType": "uint256",
          "name": "rewardsFee",
          "type": "uint256"
        },
        {
          "internalType": "uint256",
          "name": "marketingFee",
          "type": "uint256"
        },
        {
          "internalType": "uint256",
          "name": "deadFee",
          "type": "uint256"
        }
      ],
      "name": "setBuyTaxes",
      "outputs": [],
      "stateMutability": "nonpayable",
      "type": "function"
    },
    {
      "inputs": [
        {
          "internalType": "address",
          "name": "addr",
          "type": "address"
        }
      ],
      "name": "setDeadWallet",
      "outputs": [],
      "stateMutability": "nonpayable",
      "type": "function"
    },
    {
      "inputs": [
        {
          "internalType": "address payable",
          "name": "wallet",
          "type": "address"
        }
      ],
      "name": "setMarketingWallet",
      "outputs": [],
      "stateMutability": "nonpayable",
      "type": "function"
    },
    {
      "inputs": [
        {
          "internalType": "uint256",
          "name": "liquidity",
          "type": "uint256"
        },
        {
          "internalType": "uint256",
          "name": "rewardsFee",
          "type": "uint256"
        },
        {
          "internalType": "uint256",
          "name": "marketingFee",
          "type": "uint256"
        },
        {
          "internalType": "uint256",
          "name": "deadFee",
          "type": "uint256"
        }
      ],
      "name": "setSelTaxes",
      "outputs": [],
      "stateMutability": "nonpayable",
      "type": "function"
    },
    {
      "inputs": [
        {
          "internalType": "uint256",
          "name": "amount",
          "type": "uint256"
        }
      ],
      "name": "setSwapTokensAtAmount",
      "outputs": [],
      "stateMutability": "nonpayable",
      "type": "function"
    },
    {
      "inputs": [],
      "name": "swapManual",
      "outputs": [],
      "stateMutability": "nonpayable",
      "type": "function"
    },
    {
      "inputs": [],
      "name": "swapTokensAtAmount",
      "outputs": [
        {
          "internalType": "uint256",
          "name": "",
          "type": "uint256"
        }
      ],
      "stateMutability": "view",
      "type": "function"
    },
    {
      "inputs": [],
      "name": "symbol",
      "outputs": [
        {
          "internalType": "string",
          "name": "",
          "type": "string"
        }
      ],
      "stateMutability": "view",
      "type": "function"
    },
    {
      "inputs": [],
      "name": "totalSupply",
      "outputs": [
        {
          "internalType": "uint256",
          "name": "",
          "type": "uint256"
        }
      ],
      "stateMutability": "view",
      "type": "function"
    },
    {
      "inputs": [
        {
          "internalType": "address",
          "name": "recipient",
          "type": "address"
        },
        {
          "internalType": "uint256",
          "name": "amount",
          "type": "uint256"
        }
      ],
      "name": "transfer",
      "outputs": [
        {
          "internalType": "bool",
          "name": "",
          "type": "bool"
        }
      ],
      "stateMutability": "nonpayable",
      "type": "function"
    },
    {
      "inputs": [
        {
          "internalType": "address",
          "name": "sender",
          "type": "address"
        },
        {
          "internalType": "address",
          "name": "recipient",
          "type": "address"
        },
        {
          "internalType": "uint256",
          "name": "amount",
          "type": "uint256"
        }
      ],
      "name": "transferFrom",
      "outputs": [
        {
          "internalType": "bool",
          "name": "",
          "type": "bool"
        }
      ],
      "stateMutability": "nonpayable",
      "type": "function"
    },
    {
      "inputs": [
        {
          "internalType": "address",
          "name": "newOwner",
          "type": "address"
        }
      ],
      "name": "transferOwnership",
      "outputs": [],
      "stateMutability": "nonpayable",
      "type": "function"
    },
    {
      "inputs": [],
      "name": "uniswapV2Pair",
      "outputs": [
        {
          "internalType": "address",
          "name": "",
          "type": "address"
        }
      ],
      "stateMutability": "view",
      "type": "function"
    },
    {
      "inputs": [],
      "name": "uniswapV2Router",
      "outputs": [
        {
          "internalType": "contract IUniswapV2Router02",
          "name": "",
          "type": "address"
        }
      ],
      "stateMutability": "view",
      "type": "function"
    },
    {
      "inputs": [
        {
          "internalType": "uint256",
          "name": "claimWait",
          "type": "uint256"
        }
      ],
      "name": "updateClaimWait",
      "outputs": [],
      "stateMutability": "nonpayable",
      "type": "function"
    },
    {
      "inputs": [
        {
          "internalType": "uint256",
          "name": "newValue",
          "type": "uint256"
        }
      ],
      "name": "updateGasForProcessing",
      "outputs": [],
      "stateMutability": "nonpayable",
      "type": "function"
    },
    {
      "inputs": [
        {
          "internalType": "uint256",
          "name": "val",
          "type": "uint256"
        }
      ],
      "name": "updateMinimumTokenBalanceForDividends",
      "outputs": [],
      "stateMutability": "nonpayable",
      "type": "function"
    },
    {
      "inputs": [
        {
          "internalType": "address",
          "name": "newAddress",
          "type": "address"
        }
      ],
      "name": "updateUniswapV2Router",
      "outputs": [],
      "stateMutability": "nonpayable",
      "type": "function"
    },
    {
      "inputs": [
        {
          "internalType": "address",
          "name": "account",
          "type": "address"
        }
      ],
      "name": "withdrawableDividendOf",
      "outputs": [
        {
          "internalType": "uint256",
          "name": "",
          "type": "uint256"
        }
      ],
      "stateMutability": "view",
      "type": "function"
    },
    {
      "stateMutability": "payable",
      "type": "receive"
    }
  ],
  "bytecode": "0x60806040819052601980546001600160a01b03191661dead1790556200749c38819003908190833981016040819052620000399162000ea8565b8751889088906200005290600390602085019062000c7c565b5080516200006890600490602084019062000c7c565b505050620000856200007f6200075c60201b60201c565b62000760565b601680546001600160a01b038381166001600160a01b03199283161790925586516009805491841691831691909117905560408088015160178054919094169216919091179091558451600b819055602086810151600d81905587840151600f8190556060808a015160118190558951600c5589850151600e5595890151601055880151601255601994620001419490936200012d9384929162002272620007b2821b17901c565b620007b260201b620022721790919060201c565b1115620001955760405162461bcd60e51b815260206004820152601960248201527f546f74616c2062757920666565206973206f766572203235250000000000000060448201526064015b60405180910390fd5b6019620001c36012546200012d6010546200012d600e54600c54620007b260201b620022721790919060201c565b1115620002135760405162461bcd60e51b815260206004820152601a60248201527f546f74616c2073656c6c20666565206973206f7665722032352500000000000060448201526064016200018c565b60006200022987670de0b6b3a764000062000fd5565b905062000262620f42406200024e6002846200081e60201b620022d81790919060201c565b620008a560201b620023731790919060201c565b600a55620493e0601b558560036020020151601880546001600160a01b0319166001600160a01b039283161790556009546040519116908490620002a69062000d0b565b6001600160a01b0390921682526020820152604001604051809103906000f080158015620002d8573d6000803e3d6000fd5b50600880546001600160a01b0319166001600160a01b03929092169190911790556000866001602002015190506000816001600160a01b031663c45a01556040518163ffffffff1660e01b8152600401602060405180830381865afa15801562000346573d6000803e3d6000fd5b505050506040513d601f19601f820116820180604052508101906200036c919062000ff7565b6001600160a01b031663c9c6539630846001600160a01b031663ad5c46486040518163ffffffff1660e01b8152600401602060405180830381865afa158015620003ba573d6000803e3d6000fd5b505050506040513d601f19601f82011682018060405250810190620003e0919062000ff7565b6040516001600160e01b031960e085901b1681526001600160a01b039283166004820152911660248201526044016020604051808303816000875af11580156200042e573d6000803e3d6000fd5b505050506040513d601f19601f8201168201806040525081019062000454919062000ff7565b600680546001600160a01b038086166001600160a01b0319928316179092556007805492841692909116919091179055905062000493816001620008ef565b60085460405163031e79db60e41b81526001600160a01b0390911660048201819052906331e79db090602401600060405180830381600087803b158015620004da57600080fd5b505af1158015620004ef573d6000803e3d6000fd5b505060085460405163031e79db60e41b81523060048201526001600160a01b0390911692506331e79db09150602401600060405180830381600087803b1580156200053957600080fd5b505af11580156200054e573d6000803e3d6000fd5b50506008546001600160a01b031691506331e79db09050620005786005546001600160a01b031690565b6040516001600160e01b031960e084901b1681526001600160a01b039091166004820152602401600060405180830381600087803b158015620005ba57600080fd5b505af1158015620005cf573d6000803e3d6000fd5b505060085460195460405163031e79db60e41b81526001600160a01b039182166004820152911692506331e79db09150602401600060405180830381600087803b1580156200061d57600080fd5b505af115801562000632573d6000803e3d6000fd5b505060085460405163031e79db60e41b81526001600160a01b03868116600483015290911692506331e79db09150602401600060405180830381600087803b1580156200067e57600080fd5b505af115801562000693573d6000803e3d6000fd5b50505050620006b3620006ab62000a5260201b60201c565b600162000a61565b601754620006cc906001600160a01b0316600162000a61565b620006d930600162000a61565b601854620006f2906001600160a01b0316600162000a61565b62000710620007096005546001600160a01b031690565b8462000b44565b6018546040516001600160a01b03909116903480156108fc02916000818181858888f193505050501580156200074a573d6000803e3d6000fd5b505050505050505050505050620010c5565b3390565b600580546001600160a01b038381166001600160a01b0319831681179093556040519116919082907f8be0079c531659141344cd1fd0a4f28419497f9722a3daafe3b4186f6b6457e090600090a35050565b600080620007c1838562001015565b905083811015620008155760405162461bcd60e51b815260206004820152601b60248201527f536166654d6174683a206164646974696f6e206f766572666c6f77000000000060448201526064016200018c565b90505b92915050565b6000826200082f5750600062000818565b60006200083d838562000fd5565b9050826200084c858362001030565b14620008155760405162461bcd60e51b815260206004820152602160248201527f536166654d6174683a206d756c7469706c69636174696f6e206f766572666c6f6044820152607760f81b60648201526084016200018c565b60006200081583836040518060400160405280601a81526020017f536166654d6174683a206469766973696f6e206279207a65726f00000000000081525062000c4060201b60201c565b6001600160a01b0382166000908152601d602052604090205460ff1615158115151415620009865760405162461bcd60e51b815260206004820152603860248201527f4175746f6d61746564206d61726b6574206d616b65722070616972206973206160448201527f6c72656164792073657420746f20746861742076616c7565000000000000000060648201526084016200018c565b6001600160a01b0382166000908152601d60205260409020805460ff1916821580159190911790915562000a165760085460405163031e79db60e41b81526001600160a01b038481166004830152909116906331e79db090602401600060405180830381600087803b158015620009fc57600080fd5b505af115801562000a11573d6000803e3d6000fd5b505050505b604051811515906001600160a01b038416907fffa9187bf1f18bf477bd0ea1bcbb64e93b6a98132473929edfce215cd9b16fab90600090a35050565b6005546001600160a01b031690565b6005546001600160a01b0316331462000abd5760405162461bcd60e51b815260206004820181905260248201527f4f776e61626c653a2063616c6c6572206973206e6f7420746865206f776e657260448201526064016200018c565b6001600160a01b0382166000908152601c602052604090205460ff1615158115151462000b40576001600160a01b0382166000818152601c6020908152604091829020805460ff191685151590811790915591519182527f9d8f7706ea1113d1a167b526eca956215946dd36cc7df39eb16180222d8b5df7910160405180910390a25b5050565b6001600160a01b03821662000b9c5760405162461bcd60e51b815260206004820152601f60248201527f45524332303a206361737420746f20746865207a65726f20616464726573730060448201526064016200018c565b62000bb881600254620007b260201b620022721790919060201c565b6002556001600160a01b0382166000908152602081815260409091205462000beb91839062002272620007b2821b17901c565b6001600160a01b038316600081815260208181526040808320949094559251848152919290917fddf252ad1be2c89b69c2b068fc378daa952ba7f163c4a11628f55a4df523b3ef910160405180910390a35050565b6000818362000c645760405162461bcd60e51b81526004016200018c919062001053565b50600062000c73848662001030565b95945050505050565b82805462000c8a9062001088565b90600052602060002090601f01602090048101928262000cae576000855562000cf9565b82601f1062000cc957805160ff191683800117855562000cf9565b8280016001018555821562000cf9579182015b8281111562000cf957825182559160200191906001019062000cdc565b5062000d0792915062000d19565b5090565b6125b18062004eeb83390190565b5b8082111562000d07576000815560010162000d1a565b634e487b7160e01b600052604160045260246000fd5b604051608081016001600160401b038111828210171562000d6b5762000d6b62000d30565b60405290565b60005b8381101562000d8e57818101518382015260200162000d74565b8381111562000d9e576000848401525b50505050565b600082601f83011262000db657600080fd5b81516001600160401b038082111562000dd35762000dd362000d30565b604051601f8301601f19908116603f0116810190828211818310171562000dfe5762000dfe62000d30565b8160405283815286602085880101111562000e1857600080fd5b62000e2b84602083016020890162000d71565b9695505050505050565b80516001600160a01b038116811462000e4d57600080fd5b919050565b600082601f83011262000e6457600080fd5b62000e6e62000d46565b80608084018581111562000e8157600080fd5b845b8181101562000e9d57805184526020938401930162000e83565b509095945050505050565b600080600080600080600080610220898b03121562000ec657600080fd5b88516001600160401b038082111562000ede57600080fd5b62000eec8c838d0162000da4565b995060209150818b01518181111562000f0457600080fd5b62000f128d828e0162000da4565b9950505060408a015196508a607f8b011262000f2d57600080fd5b62000f3762000d46565b8060e08c018d81111562000f4a57600080fd5b60608d015b8181101562000f715762000f638162000e35565b845292840192840162000f4f565b5081985062000f818e8262000e52565b97505050505062000f978a6101608b0162000e52565b92506101e0890151915062000fb06102008a0162000e35565b90509295985092959890939650565b634e487b7160e01b600052601160045260246000fd5b600081600019048311821515161562000ff25762000ff262000fbf565b500290565b6000602082840312156200100a57600080fd5b620008158262000e35565b600082198211156200102b576200102b62000fbf565b500190565b6000826200104e57634e487b7160e01b600052601260045260246000fd5b500490565b60208152600082518060208401526200107481604085016020870162000d71565b601f01601f19169190910160400192915050565b600181811c908216806200109d57607f821691505b60208210811415620010bf57634e487b7160e01b600052602260045260246000fd5b50919050565b613e1680620010d56000396000f3fe6080604052600436106103bc5760003560e01c80638da5cb5b116101f2578063c492f0461161010d578063e98030c7116100a0578063f2fde38b1161006f578063f2fde38b14610b4a578063f637434214610b6a578063f7c618c114610b80578063f832679514610ba057600080fd5b8063e98030c714610ad4578063eb671e9114610af4578063f11a24d314610b14578063f27fd25414610b2a57600080fd5b8063dd62ed3e116100dc578063dd62ed3e14610a43578063e2f4560514610a89578063e4bf1bed14610a9f578063e7841ec014610abf57600080fd5b8063c492f046146109d8578063c705c569146109f8578063cfe0e61914610a18578063d2a8b44014610a2e57600080fd5b8063a457c2d711610185578063ad56c13c11610154578063ad56c13c14610903578063afa4f3b214610968578063b62496f514610988578063c0246668146109b857600080fd5b8063a457c2d714610873578063a8b9d24014610893578063a9059cbb146108b3578063aa797dbc146108d357600080fd5b80639a7a23d6116101c15780639a7a23d6146108085780639c1b8af514610828578063a26579ad1461083e578063a2cf11e11461085357600080fd5b80638da5cb5b146107a95780638de743b3146107c757806392136913146107dd57806395d89b41146107f357600080fd5b80634144d9e4116102e25780636843cd84116102755780637bce5a04116102445780637bce5a041461073357806385141a77146107495780638692361114610769578063871c128d1461078957600080fd5b80636843cd84146106a8578063700bb191146106c857806370a08231146106e8578063715018a61461071e57600080fd5b80635d098b38116102b15780635d098b381461063357806361a60d571461065357806364b0f6531461067357806365b8dbc01461068857600080fd5b80634144d9e4146105a557806349bd5a5e146105c55780634e71d92d146105e55780634fbee193146105fa57600080fd5b806323b872dd1161035a578063313ce56711610329578063313ce5671461053357806331e79db01461054f5780633926876d1461056f578063395093511461058557600080fd5b806323b872dd146104c857806324942a04146104e85780632c1f5216146104fe57806330bb4cff1461051e57600080fd5b8063095ea7b311610396578063095ea7b3146104295780630dcb2e89146104595780631694505e1461047b57806318160ddd146104b357600080fd5b806302df64d6146103c857806306fdde03146103f157806308b2a12c1461041357600080fd5b366103c357005b600080fd5b3480156103d457600080fd5b506103de600b5481565b6040519081526020015b60405180910390f35b3480156103fd57600080fd5b50610406610bb6565b6040516103e8919061388c565b34801561041f57600080fd5b506103de600c5481565b34801561043557600080fd5b506104496104443660046138f6565b610c48565b60405190151581526020016103e8565b34801561046557600080fd5b50610479610474366004613922565b610c5f565b005b34801561048757600080fd5b5060065461049b906001600160a01b031681565b6040516001600160a01b0390911681526020016103e8565b3480156104bf57600080fd5b506002546103de565b3480156104d457600080fd5b506104496104e336600461393b565b610d39565b3480156104f457600080fd5b506103de60125481565b34801561050a57600080fd5b5060085461049b906001600160a01b031681565b34801561052a57600080fd5b506103de610da2565b34801561053f57600080fd5b50604051601281526020016103e8565b34801561055b57600080fd5b5061047961056a36600461397c565b610e2e565b34801561057b57600080fd5b506103de60145481565b34801561059157600080fd5b506104496105a03660046138f6565b610ed3565b3480156105b157600080fd5b5060175461049b906001600160a01b031681565b3480156105d157600080fd5b5060075461049b906001600160a01b031681565b3480156105f157600080fd5b50610479610f09565b34801561060657600080fd5b5061044961061536600461397c565b6001600160a01b03166000908152601c602052604090205460ff1690565b34801561063f57600080fd5b5061047961064e36600461397c565b610f9a565b34801561065f57600080fd5b5061047961066e36600461397c565b611023565b34801561067f57600080fd5b506103de6110ac565b34801561069457600080fd5b506104796106a336600461397c565b61110f565b3480156106b457600080fd5b506103de6106c336600461397c565b6113f4565b3480156106d457600080fd5b506104796106e3366004613922565b611464565b3480156106f457600080fd5b506103de61070336600461397c565b6001600160a01b031660009081526020819052604090205490565b34801561072a57600080fd5b5061047961154c565b34801561073f57600080fd5b506103de600f5481565b34801561075557600080fd5b5060195461049b906001600160a01b031681565b34801561077557600080fd5b506104796107843660046139a7565b6115b2565b34801561079557600080fd5b506104796107a4366004613922565b611637565b3480156107b557600080fd5b506005546001600160a01b031661049b565b3480156107d357600080fd5b506103de60115481565b3480156107e957600080fd5b506103de60105481565b3480156107ff57600080fd5b506104066117c4565b34801561081457600080fd5b506104796108233660046139a7565b6117d3565b34801561083457600080fd5b506103de601b5481565b34801561084a57600080fd5b506103de6118e5565b34801561085f57600080fd5b5060165461049b906001600160a01b031681565b34801561087f57600080fd5b5061044961088e3660046138f6565b611948565b34801561089f57600080fd5b506103de6108ae36600461397c565b611997565b3480156108bf57600080fd5b506104496108ce3660046138f6565b6119e3565b3480156108df57600080fd5b506104496108ee36600461397c565b601a6020526000908152604090205460ff1681565b34801561090f57600080fd5b5061092361091e36600461397c565b6119f0565b604080516001600160a01b0390991689526020890197909752958701949094526060860192909252608085015260a084015260c083015260e0820152610100016103e8565b34801561097457600080fd5b50610479610983366004613922565b611aa4565b34801561099457600080fd5b506104496109a336600461397c565b601d6020526000908152604090205460ff1681565b3480156109c457600080fd5b506104796109d33660046139a7565b611b03565b3480156109e457600080fd5b506104796109f33660046139e0565b611be2565b348015610a0457600080fd5b50610449610a1336600461397c565b611cee565b348015610a2457600080fd5b506103de60155481565b348015610a3a57600080fd5b50610479611d76565b348015610a4f57600080fd5b506103de610a5e366004613a66565b6001600160a01b03918216600090815260016020908152604080832093909416825291909152205490565b348015610a9557600080fd5b506103de600a5481565b348015610aab57600080fd5b50610479610aba366004613a94565b611e89565b348015610acb57600080fd5b506103de611f60565b348015610ae057600080fd5b50610479610aef366004613922565b611fc3565b348015610b0057600080fd5b50610479610b0f366004613a94565b612067565b348015610b2057600080fd5b506103de600d5481565b348015610b3657600080fd5b50610923610b45366004613922565b612138565b348015610b5657600080fd5b50610479610b6536600461397c565b612193565b348015610b7657600080fd5b506103de600e5481565b348015610b8c57600080fd5b5060095461049b906001600160a01b031681565b348015610bac57600080fd5b506103de60135481565b606060038054610bc590613ac6565b80601f0160208091040260200160405190810160405280929190818152602001828054610bf190613ac6565b8015610c3e5780601f10610c1357610100808354040283529160200191610c3e565b820191906000526020600020905b815481529060010190602001808311610c2157829003601f168201915b5050505050905090565b6000610c553384846123b5565b5060015b92915050565b6005546001600160a01b03163314610cbe5760405162461bcd60e51b815260206004820181905260248201527f4f776e61626c653a2063616c6c6572206973206e6f7420746865206f776e657260448201526064015b60405180910390fd5b6008546040517f5ebf4db9000000000000000000000000000000000000000000000000000000008152600481018390526001600160a01b0390911690635ebf4db9906024015b600060405180830381600087803b158015610d1e57600080fd5b505af1158015610d32573d6000803e3d6000fd5b5050505050565b6000610d4684848461250e565b610d988433610d9385604051806060016040528060288152602001613d94602891396001600160a01b038a1660009081526001602090815260408083203384529091529020549190612c95565b6123b5565b5060019392505050565b600854604080517f85a6b3ae00000000000000000000000000000000000000000000000000000000815290516000926001600160a01b0316916385a6b3ae9160048083019260209291908290030181865afa158015610e05573d6000803e3d6000fd5b505050506040513d601f19601f82011682018060405250810190610e299190613b01565b905090565b6005546001600160a01b03163314610e885760405162461bcd60e51b815260206004820181905260248201527f4f776e61626c653a2063616c6c6572206973206e6f7420746865206f776e65726044820152606401610cb5565b6008546040517f31e79db00000000000000000000000000000000000000000000000000000000081526001600160a01b038381166004830152909116906331e79db090602401610d04565b3360008181526001602090815260408083206001600160a01b03871684529091528120549091610c55918590610d939086612272565b6008546040517fbc4c4b37000000000000000000000000000000000000000000000000000000008152336004820152600060248201526001600160a01b039091169063bc4c4b37906044016020604051808303816000875af1158015610f73573d6000803e3d6000fd5b505050506040513d601f19601f82011682018060405250810190610f979190613b1a565b50565b6005546001600160a01b03163314610ff45760405162461bcd60e51b815260206004820181905260248201527f4f776e61626c653a2063616c6c6572206973206e6f7420746865206f776e65726044820152606401610cb5565b6017805473ffffffffffffffffffffffffffffffffffffffff19166001600160a01b0392909216919091179055565b6005546001600160a01b0316331461107d5760405162461bcd60e51b815260206004820181905260248201527f4f776e61626c653a2063616c6c6572206973206e6f7420746865206f776e65726044820152606401610cb5565b6019805473ffffffffffffffffffffffffffffffffffffffff19166001600160a01b0392909216919091179055565b600854604080517f09bbedde00000000000000000000000000000000000000000000000000000000815290516000926001600160a01b0316916309bbedde9160048083019260209291908290030181865afa158015610e05573d6000803e3d6000fd5b6005546001600160a01b031633146111695760405162461bcd60e51b815260206004820181905260248201527f4f776e61626c653a2063616c6c6572206973206e6f7420746865206f776e65726044820152606401610cb5565b6006546001600160a01b03828116911614156111d35760405162461bcd60e51b815260206004820152602360248201527f54686520726f7574657220616c7265616479206861732074686174206164647260448201526265737360e81b6064820152608401610cb5565b6006546040516001600160a01b03918216918316907f8fc842bbd331dfa973645f4ed48b11683d501ebf1352708d77a5da2ab49a576e90600090a36006805473ffffffffffffffffffffffffffffffffffffffff19166001600160a01b038316908117909155604080517fc45a015500000000000000000000000000000000000000000000000000000000815290516000929163c45a01559160048083019260209291908290030181865afa158015611290573d6000803e3d6000fd5b505050506040513d601f19601f820116820180604052508101906112b49190613b37565b6001600160a01b031663c9c6539630600660009054906101000a90046001600160a01b03166001600160a01b031663ad5c46486040518163ffffffff1660e01b8152600401602060405180830381865afa158015611316573d6000803e3d6000fd5b505050506040513d601f19601f8201168201806040525081019061133a9190613b37565b6040517fffffffff0000000000000000000000000000000000000000000000000000000060e085901b1681526001600160a01b039283166004820152911660248201526044016020604051808303816000875af115801561139f573d6000803e3d6000fd5b505050506040513d601f19601f820116820180604052508101906113c39190613b37565b6007805473ffffffffffffffffffffffffffffffffffffffff19166001600160a01b03929092169190911790555050565b6008546040516370a0823160e01b81526001600160a01b03838116600483015260009216906370a08231906024015b602060405180830381865afa158015611440573d6000803e3d6000fd5b505050506040513d601f19601f82011682018060405250810190610c599190613b01565b6008546040517fffb2c47900000000000000000000000000000000000000000000000000000000815260048101839052600091829182916001600160a01b03169063ffb2c479906024016060604051808303816000875af11580156114cd573d6000803e3d6000fd5b505050506040513d601f19601f820116820180604052508101906114f19190613b54565b604080518481526020810184905290810182905260608101889052929550909350915032906000907fc864333d6121033635ab41b29ae52f10a22cf4438c3e4f1c4c68518feb2f8a989060800160405180910390a350505050565b6005546001600160a01b031633146115a65760405162461bcd60e51b815260206004820181905260248201527f4f776e61626c653a2063616c6c6572206973206e6f7420746865206f776e65726044820152606401610cb5565b6115b06000612ccf565b565b6005546001600160a01b0316331461160c5760405162461bcd60e51b815260206004820181905260248201527f4f776e61626c653a2063616c6c6572206973206e6f7420746865206f776e65726044820152606401610cb5565b6001600160a01b03919091166000908152601a60205260409020805460ff1916911515919091179055565b6005546001600160a01b031633146116915760405162461bcd60e51b815260206004820181905260248201527f4f776e61626c653a2063616c6c6572206973206e6f7420746865206f776e65726044820152606401610cb5565b62030d4081101580156116a757506207a1208111155b6117195760405162461bcd60e51b815260206004820152603460248201527f476173466f7250726f63657373696e67206d757374206265206265747765656e60448201527f203230302c30303020616e64203530302c3030300000000000000000000000006064820152608401610cb5565b601b548114156117915760405162461bcd60e51b815260206004820152602c60248201527f43616e6e6f742075706461746520676173466f7250726f63657373696e67207460448201527f6f2073616d652076616c756500000000000000000000000000000000000000006064820152608401610cb5565b601b5460405182907f40d7e40e79af4e8e5a9b3c57030d8ea93f13d669c06d448c4d631d4ae7d23db790600090a3601b55565b606060048054610bc590613ac6565b6005546001600160a01b0316331461182d5760405162461bcd60e51b815260206004820181905260248201527f4f776e61626c653a2063616c6c6572206973206e6f7420746865206f776e65726044820152606401610cb5565b6007546001600160a01b03838116911614156118d75760405162461bcd60e51b815260206004820152604560248201527f5468652050616e63616b655377617020706169722063616e6e6f74206265207260448201527f656d6f7665642066726f6d206175746f6d617465644d61726b65744d616b657260648201527f5061697273000000000000000000000000000000000000000000000000000000608482015260a401610cb5565b6118e18282612d2e565b5050565b600854604080517f6f2789ec00000000000000000000000000000000000000000000000000000000815290516000926001600160a01b031691636f2789ec9160048083019260209291908290030181865afa158015610e05573d6000803e3d6000fd5b6000610c553384610d9385604051806060016040528060258152602001613dbc602591393360009081526001602090815260408083206001600160a01b038d1684529091529020549190612c95565b6008546040517fa8b9d2400000000000000000000000000000000000000000000000000000000081526001600160a01b038381166004830152600092169063a8b9d24090602401611423565b6000610c5533848461250e565b6008546040517ffbcbc0f10000000000000000000000000000000000000000000000000000000081526001600160a01b038381166004830152600092839283928392839283928392839291169063fbcbc0f1906024015b61010060405180830381865afa158015611a65573d6000803e3d6000fd5b505050506040513d601f19601f82011682018060405250810190611a899190613b82565b97509750975097509750975097509750919395975091939597565b6005546001600160a01b03163314611afe5760405162461bcd60e51b815260206004820181905260248201527f4f776e61626c653a2063616c6c6572206973206e6f7420746865206f776e65726044820152606401610cb5565b600a55565b6005546001600160a01b03163314611b5d5760405162461bcd60e51b815260206004820181905260248201527f4f776e61626c653a2063616c6c6572206973206e6f7420746865206f776e65726044820152606401610cb5565b6001600160a01b0382166000908152601c602052604090205460ff161515811515146118e1576001600160a01b0382166000818152601c6020908152604091829020805460ff191685151590811790915591519182527f9d8f7706ea1113d1a167b526eca956215946dd36cc7df39eb16180222d8b5df7910160405180910390a25050565b6005546001600160a01b03163314611c3c5760405162461bcd60e51b815260206004820181905260248201527f4f776e61626c653a2063616c6c6572206973206e6f7420746865206f776e65726044820152606401610cb5565b60005b82811015611cad5781601c6000868685818110611c5e57611c5e613bec565b9050602002016020810190611c73919061397c565b6001600160a01b031681526020810191909152604001600020805460ff191691151591909117905580611ca581613c18565b915050611c3f565b507f7fdaf542373fa84f4ee8d662c642f44e4c2276a217d7d29e548b6eb29a233b35838383604051611ce193929190613c33565b60405180910390a1505050565b6008546040517fc705c5690000000000000000000000000000000000000000000000000000000081526001600160a01b038381166004830152600092169063c705c56990602401602060405180830381865afa158015611d52573d6000803e3d6000fd5b505050506040513d601f19601f82011682018060405250810190610c599190613b1a565b6005546001600160a01b03163314611dd05760405162461bcd60e51b815260206004820181905260248201527f4f776e61626c653a2063616c6c6572206973206e6f7420746865206f776e65726044820152606401610cb5565b3060009081526020819052604090205480611e2d5760405162461bcd60e51b815260206004820152601260248201527f746f6b656e2062616c616e6365207a65726f00000000000000000000000000006044820152606401610cb5565b6007805460ff60a01b1916600160a01b17905560135415611e5357611e53601354612ea5565b60145415611e6657611e66601454612f3d565b60155415611e7957611e79601554613112565b506007805460ff60a01b19169055565b6005546001600160a01b03163314611ee35760405162461bcd60e51b815260206004820181905260248201527f4f776e61626c653a2063616c6c6572206973206e6f7420746865206f776e65726044820152606401610cb5565b6019611efb82611ef58581888a612272565b90612272565b1115611f495760405162461bcd60e51b815260206004820152601960248201527f546f74616c2062757920666565206973206f76657220323525000000000000006044820152606401610cb5565b600b92909255600d92909255600f91909155601155565b600854604080517fe7841ec000000000000000000000000000000000000000000000000000000000815290516000926001600160a01b03169163e7841ec09160048083019260209291908290030181865afa158015610e05573d6000803e3d6000fd5b6005546001600160a01b0316331461201d5760405162461bcd60e51b815260206004820181905260248201527f4f776e61626c653a2063616c6c6572206973206e6f7420746865206f776e65726044820152606401610cb5565b6008546040517fe98030c7000000000000000000000000000000000000000000000000000000008152600481018390526001600160a01b039091169063e98030c790602401610d04565b6005546001600160a01b031633146120c15760405162461bcd60e51b815260206004820181905260248201527f4f776e61626c653a2063616c6c6572206973206e6f7420746865206f776e65726044820152606401610cb5565b60196120d382611ef58581888a612272565b11156121215760405162461bcd60e51b815260206004820152601960248201527f546f74616c2073656c20666565206973206f76657220323525000000000000006044820152606401610cb5565b600c92909255600e92909255601091909155601255565b6008546040517f5183d6fd0000000000000000000000000000000000000000000000000000000081526004810183905260009182918291829182918291829182916001600160a01b0390911690635183d6fd90602401611a47565b6005546001600160a01b031633146121ed5760405162461bcd60e51b815260206004820181905260248201527f4f776e61626c653a2063616c6c6572206973206e6f7420746865206f776e65726044820152606401610cb5565b6001600160a01b0381166122695760405162461bcd60e51b815260206004820152602660248201527f4f776e61626c653a206e6577206f776e657220697320746865207a65726f206160448201527f64647265737300000000000000000000000000000000000000000000000000006064820152608401610cb5565b610f9781612ccf565b60008061227f8385613c8c565b9050838110156122d15760405162461bcd60e51b815260206004820152601b60248201527f536166654d6174683a206164646974696f6e206f766572666c6f7700000000006044820152606401610cb5565b9392505050565b6000826122e757506000610c59565b60006122f38385613ca4565b9050826123008583613cc3565b146122d15760405162461bcd60e51b815260206004820152602160248201527f536166654d6174683a206d756c7469706c69636174696f6e206f766572666c6f60448201527f77000000000000000000000000000000000000000000000000000000000000006064820152608401610cb5565b60006122d183836040518060400160405280601a81526020017f536166654d6174683a206469766973696f6e206279207a65726f0000000000008152506132ae565b6001600160a01b0383166124305760405162461bcd60e51b8152602060048201526024808201527f45524332303a20617070726f76652066726f6d20746865207a65726f2061646460448201527f72657373000000000000000000000000000000000000000000000000000000006064820152608401610cb5565b6001600160a01b0382166124ac5760405162461bcd60e51b815260206004820152602260248201527f45524332303a20617070726f766520746f20746865207a65726f20616464726560448201527f73730000000000000000000000000000000000000000000000000000000000006064820152608401610cb5565b6001600160a01b0383811660008181526001602090815260408083209487168084529482529182902085905590518481527f8c5be1e5ebec7d5bd14f71427d1e84f3dd0314c0f7b2291e5b200ac8c7c3b92591015b60405180910390a3505050565b6001600160a01b03831661258a5760405162461bcd60e51b815260206004820152602560248201527f45524332303a207472616e736665722066726f6d20746865207a65726f20616460448201527f64726573730000000000000000000000000000000000000000000000000000006064820152608401610cb5565b6001600160a01b0382166125ec5760405162461bcd60e51b815260206004820152602360248201527f45524332303a207472616e7366657220746f20746865207a65726f206164647260448201526265737360e81b6064820152608401610cb5565b6001600160a01b0383166000908152601a602052604090205460ff1615801561262e57506001600160a01b0382166000908152601a602052604090205460ff16155b61267a5760405162461bcd60e51b815260206004820152600d60248201527f456e656d792061646472657373000000000000000000000000000000000000006044820152606401610cb5565b806126905761268b838360006132dc565b505050565b30600090815260208190526040902054600a54811080159081906126be5750600754600160a01b900460ff16155b80156126e357506001600160a01b0385166000908152601d602052604090205460ff16155b80156126fd57506005546001600160a01b03868116911614155b801561271757506005546001600160a01b03858116911614155b15612776576007805460ff60a01b1916600160a01b1790556015541561274257612742601554613112565b6013541561275557612755601354612ea5565b6014541561276857612768601454612f3d565b6007805460ff60a01b191690555b6007546001600160a01b0386166000908152601c602052604090205460ff600160a01b9092048216159116806127c457506001600160a01b0385166000908152601c602052604090205460ff165b156127cd575060005b8015612a50576001600160a01b0386166000908152601d6020526040812054819081908190819060ff16801561286e57506016546040516370a0823160e01b81526001600160a01b038c81166004830152909116906370a0823190602401602060405180830381865afa158015612848573d6000803e3d6000fd5b505050506040513d601f19601f8201168201806040525081019061286c9190613b01565b155b1561293257612893606461288d600d548c6122d890919063ffffffff16565b90612373565b935083601360008282546128a79190613c8c565b9091555050600b546128c19060649061288d908c906122d8565b925082601460008282546128d59190613c8c565b9091555050600f546128ef9060649061288d908c906122d8565b915081601560008282546129039190613c8c565b909155505060115461291d9060649061288d908c906122d8565b905061292f81611ef584818888612272565b94505b6001600160a01b038a166000908152601d602052604090205460ff1615612a0c5761296d606461288d600e548c6122d890919063ffffffff16565b935083601360008282546129819190613c8c565b9091555050600c5461299b9060649061288d908c906122d8565b925082601460008282546129af9190613c8c565b90915550506010546129c99060649061288d908c906122d8565b915081601560008282546129dd9190613c8c565b90915550506012546129f79060649061288d908c906122d8565b9050612a0981611ef584818888612272565b94505b612a168986613477565b98508015612a3657601954612a36908c906001600160a01b0316836132dc565b612a4a8b30612a458885613477565b6132dc565b50505050505b612a5b8686866132dc565b6008546001600160a01b031663e30443bc87612a8c816001600160a01b031660009081526020819052604090205490565b6040517fffffffff0000000000000000000000000000000000000000000000000000000060e085901b1681526001600160a01b0390921660048301526024820152604401600060405180830381600087803b158015612aea57600080fd5b505af1925050508015612afb575060015b506008546001600160a01b031663e30443bc86612b2d816001600160a01b031660009081526020819052604090205490565b6040517fffffffff0000000000000000000000000000000000000000000000000000000060e085901b1681526001600160a01b0390921660048301526024820152604401600060405180830381600087803b158015612b8b57600080fd5b505af1925050508015612b9c575060015b50600754600160a01b900460ff16612c8d57601b546008546040517fffb2c479000000000000000000000000000000000000000000000000000000008152600481018390526001600160a01b039091169063ffb2c479906024016060604051808303816000875af1925050508015612c31575060408051601f3d908101601f19168201909252612c2e91810190613b54565b60015b612c3a57612c8b565b60408051848152602081018490529081018290526060810185905232906001907fc864333d6121033635ab41b29ae52f10a22cf4438c3e4f1c4c68518feb2f8a989060800160405180910390a35050505b505b505050505050565b60008184841115612cb95760405162461bcd60e51b8152600401610cb5919061388c565b506000612cc68486613ce5565b95945050505050565b600580546001600160a01b0383811673ffffffffffffffffffffffffffffffffffffffff19831681179093556040519116919082907f8be0079c531659141344cd1fd0a4f28419497f9722a3daafe3b4186f6b6457e090600090a35050565b6001600160a01b0382166000908152601d602052604090205460ff1615158115151415612dc35760405162461bcd60e51b815260206004820152603860248201527f4175746f6d61746564206d61726b6574206d616b65722070616972206973206160448201527f6c72656164792073657420746f20746861742076616c756500000000000000006064820152608401610cb5565b6001600160a01b0382166000908152601d60205260409020805460ff19168215801591909117909155612e69576008546040517f31e79db00000000000000000000000000000000000000000000000000000000081526001600160a01b038481166004830152909116906331e79db090602401600060405180830381600087803b158015612e5057600080fd5b505af1158015612e64573d6000803e3d6000fd5b505050505b604051811515906001600160a01b038416907fffa9187bf1f18bf477bd0ea1bcbb64e93b6a98132473929edfce215cd9b16fab90600090a35050565b6000612eb2826002612373565b90506000612ec08383613477565b905047612ecc836134b9565b6000612ed84783613477565b9050612ee4838261363d565b84601354612ef29190613ce5565b60135560408051858152602081018390529081018490527f17bbfb9a6069321b6ded73bd96327c9e6b7212a5cd51ff219cd61370acafb5619060600160405180910390a15050505050565b612f4681613703565b80601454612f549190613ce5565b6014556009546040516370a0823160e01b81523060048201526000916001600160a01b0316906370a0823190602401602060405180830381865afa158015612fa0573d6000803e3d6000fd5b505050506040513d601f19601f82011682018060405250810190612fc49190613b01565b6009546008546040517fa9059cbb0000000000000000000000000000000000000000000000000000000081526001600160a01b0391821660048201526024810184905292935060009291169063a9059cbb906044016020604051808303816000875af1158015613038573d6000803e3d6000fd5b505050506040513d601f19601f8201168201806040525081019061305c9190613b1a565b9050801561268b576008546040517fba72a955000000000000000000000000000000000000000000000000000000008152600481018490526001600160a01b039091169063ba72a95590602401600060405180830381600087803b1580156130c357600080fd5b505af11580156130d7573d6000803e3d6000fd5b505060408051868152602081018690527f80195cc573b02cc48460cbca6e6e4cc85ddb91959d946e1c3025ea3d87942dc39350019050611ce1565b6009546040516370a0823160e01b81523060048201526000916001600160a01b0316906370a0823190602401602060405180830381865afa15801561315b573d6000803e3d6000fd5b505050506040513d601f19601f8201168201806040525081019061317f9190613b01565b905061318a82613703565b6009546040516370a0823160e01b81523060048201526000916132039184916001600160a01b0316906370a0823190602401602060405180830381865afa1580156131d9573d6000803e3d6000fd5b505050506040513d601f19601f820116820180604052508101906131fd9190613b01565b90613477565b6009546017546040517fa9059cbb0000000000000000000000000000000000000000000000000000000081526001600160a01b03918216600482015260248101849052929350169063a9059cbb906044016020604051808303816000875af1158015613273573d6000803e3d6000fd5b505050506040513d601f19601f820116820180604052508101906132979190613b1a565b50826015546132a69190613ce5565b601555505050565b600081836132cf5760405162461bcd60e51b8152600401610cb5919061388c565b506000612cc68486613cc3565b6001600160a01b0383166133585760405162461bcd60e51b815260206004820152602560248201527f45524332303a207472616e736665722066726f6d20746865207a65726f20616460448201527f64726573730000000000000000000000000000000000000000000000000000006064820152608401610cb5565b6001600160a01b0382166133ba5760405162461bcd60e51b815260206004820152602360248201527f45524332303a207472616e7366657220746f20746865207a65726f206164647260448201526265737360e81b6064820152608401610cb5565b6133f781604051806060016040528060268152602001613d6e602691396001600160a01b0386166000908152602081905260409020549190612c95565b6001600160a01b0380851660009081526020819052604080822093909355908416815220546134269082612272565b6001600160a01b038381166000818152602081815260409182902094909455518481529092918616917fddf252ad1be2c89b69c2b068fc378daa952ba7f163c4a11628f55a4df523b3ef9101612501565b60006122d183836040518060400160405280601e81526020017f536166654d6174683a207375627472616374696f6e206f766572666c6f770000815250612c95565b60408051600280825260608201835260009260208301908036833701905050905030816000815181106134ee576134ee613bec565b6001600160a01b03928316602091820292909201810191909152600654604080517fad5c46480000000000000000000000000000000000000000000000000000000081529051919093169263ad5c46489260048083019391928290030181865afa158015613560573d6000803e3d6000fd5b505050506040513d601f19601f820116820180604052508101906135849190613b37565b8160018151811061359757613597613bec565b6001600160a01b0392831660209182029290920101526006546135bd91309116846123b5565b6006546040517f791ac9470000000000000000000000000000000000000000000000000000000081526001600160a01b039091169063791ac9479061360f908590600090869030904290600401613cfc565b600060405180830381600087803b15801561362957600080fd5b505af1158015612c8d573d6000803e3d6000fd5b6006546136559030906001600160a01b0316846123b5565b6006546018546040517ff305d7190000000000000000000000000000000000000000000000000000000081523060048201526024810185905260006044820181905260648201526001600160a01b0391821660848201524260a482015291169063f305d71990839060c40160606040518083038185885af11580156136de573d6000803e3d6000fd5b50505050506040513d601f19601f82011682018060405250810190610d329190613b54565b6040805160038082526080820190925260009160208201606080368337019050509050308160008151811061373a5761373a613bec565b6001600160a01b03928316602091820292909201810191909152600654604080517fad5c46480000000000000000000000000000000000000000000000000000000081529051919093169263ad5c46489260048083019391928290030181865afa1580156137ac573d6000803e3d6000fd5b505050506040513d601f19601f820116820180604052508101906137d09190613b37565b816001815181106137e3576137e3613bec565b6001600160a01b03928316602091820292909201015260095482519116908290600290811061381457613814613bec565b6001600160a01b03928316602091820292909201015260065461383a91309116846123b5565b6006546040517f5c11d7950000000000000000000000000000000000000000000000000000000081526001600160a01b0390911690635c11d7959061360f908590600090869030904290600401613cfc565b600060208083528351808285015260005b818110156138b95785810183015185820160400152820161389d565b818111156138cb576000604083870101525b50601f01601f1916929092016040019392505050565b6001600160a01b0381168114610f9757600080fd5b6000806040838503121561390957600080fd5b8235613914816138e1565b946020939093013593505050565b60006020828403121561393457600080fd5b5035919050565b60008060006060848603121561395057600080fd5b833561395b816138e1565b9250602084013561396b816138e1565b929592945050506040919091013590565b60006020828403121561398e57600080fd5b81356122d1816138e1565b8015158114610f9757600080fd5b600080604083850312156139ba57600080fd5b82356139c5816138e1565b915060208301356139d581613999565b809150509250929050565b6000806000604084860312156139f557600080fd5b833567ffffffffffffffff80821115613a0d57600080fd5b818601915086601f830112613a2157600080fd5b813581811115613a3057600080fd5b8760208260051b8501011115613a4557600080fd5b60209283019550935050840135613a5b81613999565b809150509250925092565b60008060408385031215613a7957600080fd5b8235613a84816138e1565b915060208301356139d5816138e1565b60008060008060808587031215613aaa57600080fd5b5050823594602084013594506040840135936060013592509050565b600181811c90821680613ada57607f821691505b60208210811415613afb57634e487b7160e01b600052602260045260246000fd5b50919050565b600060208284031215613b1357600080fd5b5051919050565b600060208284031215613b2c57600080fd5b81516122d181613999565b600060208284031215613b4957600080fd5b81516122d1816138e1565b600080600060608486031215613b6957600080fd5b8351925060208401519150604084015190509250925092565b600080600080600080600080610100898b031215613b9f57600080fd5b8851613baa816138e1565b809850506020890151965060408901519550606089015194506080890151935060a0890151925060c0890151915060e089015190509295985092959890939650565b634e487b7160e01b600052603260045260246000fd5b634e487b7160e01b600052601160045260246000fd5b6000600019821415613c2c57613c2c613c02565b5060010190565b6040808252810183905260008460608301825b86811015613c76578235613c59816138e1565b6001600160a01b0316825260209283019290910190600101613c46565b5080925050508215156020830152949350505050565b60008219821115613c9f57613c9f613c02565b500190565b6000816000190483118215151615613cbe57613cbe613c02565b500290565b600082613ce057634e487b7160e01b600052601260045260246000fd5b500490565b600082821015613cf757613cf7613c02565b500390565b600060a082018783526020878185015260a0604085015281875180845260c086019150828901935060005b81811015613d4c5784516001600160a01b031683529383019391830191600101613d27565b50506001600160a01b0396909616606085015250505060800152939250505056fe45524332303a207472616e7366657220616d6f756e7420657863656564732062616c616e636545524332303a207472616e7366657220616d6f756e74206578636565647320616c6c6f77616e636545524332303a2064656372656173656420616c6c6f77616e63652062656c6f77207a65726fa264697066735822122030d5b2b34f7ce34897ba8ee80549b3b4a1129739ce1be25c36713d1aef24b05064736f6c634300080b003360806040523480156200001157600080fd5b50604051620025b1380380620025b1833981016040819052620000349162000201565b6040518060400160405280600f81526020016e2234bb34b232b72faa3930b1b5b2b960891b8152506040518060400160405280601081526020016f2234bb34b232b7322faa3930b1b5b2b960811b8152508382828160039080519060200190620000a09291906200015b565b508051620000b69060049060208401906200015b565b505050620000d3620000cd6200010560201b60201c565b62000109565b600680546001600160a01b0319166001600160a01b03929092169190911790555050610e10601255601355506200027a565b3390565b600580546001600160a01b038381166001600160a01b0319831681179093556040519116919082907f8be0079c531659141344cd1fd0a4f28419497f9722a3daafe3b4186f6b6457e090600090a35050565b82805462000169906200023d565b90600052602060002090601f0160209004810192826200018d5760008555620001d8565b82601f10620001a857805160ff1916838001178555620001d8565b82800160010185558215620001d8579182015b82811115620001d8578251825591602001919060010190620001bb565b50620001e6929150620001ea565b5090565b5b80821115620001e65760008155600101620001eb565b600080604083850312156200021557600080fd5b82516001600160a01b03811681146200022d57600080fd5b6020939093015192949293505050565b600181811c908216806200025257607f821691505b602082108114156200027457634e487b7160e01b600052602260045260246000fd5b50919050565b612327806200028a6000396000f3fe608060405234801561001057600080fd5b50600436106102f45760003560e01c806385a6b3ae11610191578063ba72a955116100e3578063e30443bc11610097578063f2fde38b11610071578063f2fde38b146106a3578063fbcbc0f1146106b6578063ffb2c479146106c957600080fd5b8063e30443bc14610675578063e7841ec014610688578063e98030c71461069057600080fd5b8063be10b614116100c8578063be10b61414610607578063c705c56914610610578063dd62ed3e1461063c57600080fd5b8063ba72a955146105e1578063bc4c4b37146105f457600080fd5b8063a3395cb411610145578063a9059cbb1161011f578063a9059cbb146105a5578063aafd847a146105b8578063b1181e551461034f57600080fd5b8063a3395cb41461056c578063a457c2d71461057f578063a8b9d2401461059257600080fd5b806391b89fba1161017657806391b89fba1461053e57806395d89b411461055157806399248ea71461055957600080fd5b806385a6b3ae146105245780638da5cb5b1461052d57600080fd5b8063313ce5671161024a578063556cafb0116101fe5780636f2789ec116101d85780636f2789ec146104ea57806370a08231146104f3578063715018a61461051c57600080fd5b8063556cafb0146104a65780635ebf4db9146104cf5780636a474002146104e257600080fd5b8063395093511161022f57806339509351146104185780634e7b827f1461042b5780635183d6fd1461044e57600080fd5b8063313ce567146103f657806331e79db01461040557600080fd5b80631105e740116102ac57806323b872dd1161028657806323b872dd146103c757806327ce0147146103da5780633009a609146103ed57600080fd5b80631105e7401461038c57806318160ddd1461039f578063226cfa3d146103a757600080fd5b8063095ea7b3116102dd578063095ea7b31461032c57806309bbedde1461034f57806310a8c46b1461036157600080fd5b806306fdde03146102f95780630716c61114610317575b600080fd5b6103016106f7565b60405161030e9190611ed5565b60405180910390f35b61032a610325366004611f5d565b610789565b005b61033f61033a366004611f7a565b6108d6565b604051901515815260200161030e565b600b545b60405190815260200161030e565b61037461036f366004611fa6565b6108ed565b6040516001600160a01b03909116815260200161030e565b61032a61039a366004611f7a565b610920565b600254610353565b6103536103b5366004611f5d565b60116020526000908152604090205481565b61033f6103d5366004611fbf565b6109eb565b6103536103e8366004611f5d565b610a54565b610353600f5481565b6040516012815260200161030e565b61032a610413366004611f5d565b610abd565b61033f610426366004611f7a565b610bb0565b61033f610439366004611f5d565b60106020526000908152604090205460ff1681565b61046161045c366004611fa6565b610be6565b604080516001600160a01b0390991689526020890197909752958701949094526060860192909252608085015260a084015260c083015260e08201526101000161030e565b6103536104b4366004611f5d565b6001600160a01b03166000908152600c602052604090205490565b61032a6104dd366004611fa6565b610c53565b61032a610cb2565b61035360125481565b610353610501366004611f5d565b6001600160a01b031660009081526020819052604090205490565b61032a610d48565b610353600a5481565b6005546001600160a01b0316610374565b61035361054c366004611f5d565b610dac565b610301610db7565b600654610374906001600160a01b031681565b61035361057a366004611f5d565b610dc6565b61033f61058d366004611f7a565b610e0b565b6103536105a0366004611f5d565b610e5a565b61033f6105b3366004611f7a565b610e86565b6103536105c6366004611f5d565b6001600160a01b031660009081526009602052604090205490565b61032a6105ef366004611fa6565b610e93565b61033f61060236600461200e565b610f8e565b61035360135481565b61033f61061e366004611f5d565b6001600160a01b031660009081526010602052604090205460ff1690565b61035361064a366004612047565b6001600160a01b03918216600090815260016020908152604080832093909416825291909152205490565b61032a610683366004611f7a565b61106c565b600f54610353565b61032a61069e366004611fa6565b611131565b61032a6106b1366004611f5d565b611309565b6104616106c4366004611f5d565b6113e8565b6106dc6106d7366004611fa6565b6114cf565b6040805193845260208401929092529082015260600161030e565b60606003805461070690612075565b80601f016020809104026020016040519081016040528092919081815260200182805461073290612075565b801561077f5780601f106107545761010080835404028352916020019161077f565b820191906000526020600020905b81548152906001019060200180831161076257829003601f168201915b5050505050905090565b6001600160a01b0381166000908152600e602052604090205460ff166107ac5750565b6001600160a01b0381166000908152600e60209081526040808320805460ff19169055600c8252808320839055600d909152812054600b549091906107f3906001906120c6565b90506000600b600001828154811061080d5761080d6120dd565b60009182526020808320909101546001600160a01b03908116808452600d90925260408084208790559087168352822091909155600b805491925082918590811061085a5761085a6120dd565b6000918252602090912001805473ffffffffffffffffffffffffffffffffffffffff19166001600160a01b0392909216919091179055600b8054806108a1576108a16120f3565b6000828152602090208101600019908101805473ffffffffffffffffffffffffffffffffffffffff1916905501905550505050565b60006108e33384846115ea565b5060015b92915050565b6000600b6000018281548110610905576109056120dd565b6000918252602090912001546001600160a01b031692915050565b6001600160a01b0382166000908152600e602052604090205460ff161561095e576001600160a01b03919091166000908152600c6020526040902055565b6001600160a01b0382166000818152600e60209081526040808320805460ff19166001908117909155600c8352818420869055600b8054600d909452918420839055820181559091527f0175b7a638427703f0dbe7bb9bbf987a2551717b34e79f33b5b1008d1fa01db901805473ffffffffffffffffffffffffffffffffffffffff191690911790555050565b60006109f8848484611742565b610a4a8433610a45856040518060600160405280602881526020016122a5602891396001600160a01b038a16600090815260016020908152604080832033845290915290205491906117b0565b6115ea565b5060019392505050565b6001600160a01b0381166000908152600860209081526040808320549183905282205460075470010000000000000000000000000000000092610ab392610aae92610aa891610aa391906117ea565b61188c565b9061189c565b6118da565b6108e79190612109565b6005546001600160a01b03163314610b1c5760405162461bcd60e51b815260206004820181905260248201527f4f776e61626c653a2063616c6c6572206973206e6f7420746865206f776e657260448201526064015b60405180910390fd5b6001600160a01b03811660009081526010602052604090205460ff1615610b4257600080fd5b6001600160a01b0381166000908152601060205260408120805460ff19166001179055610b709082906118ed565b610b7981610789565b6040516001600160a01b038216907fa878b31040b2e6d0a9a3d3361209db3908ba62014b0dca52adbaee451d128b2590600090a250565b3360008181526001602090815260408083206001600160a01b038716845290915281205490916108e3918590610a45908661194c565b600080600080600080600080610bfb600b5490565b8910610c20575060009650600019955085945086935083925082915081905080610c48565b6000610c2b8a6108ed565b9050610c36816113e8565b98509850985098509850985098509850505b919395975091939597565b6005546001600160a01b03163314610cad5760405162461bcd60e51b815260206004820181905260248201527f4f776e61626c653a2063616c6c6572206973206e6f7420746865206f776e65726044820152606401610b13565b601355565b60405162461bcd60e51b815260206004820152605b60248201527f4469766964656e645f547261636b65723a20776974686472617744697669646560448201527f6e642064697361626c65642e20557365207468652027636c61696d272066756e60648201527f6374696f6e206f6e20746865206d61696e20636f6e74726163742e0000000000608482015260a401610b13565b565b6005546001600160a01b03163314610da25760405162461bcd60e51b815260206004820181905260248201527f4f776e61626c653a2063616c6c6572206973206e6f7420746865206f776e65726044820152606401610b13565b610d4660006119ab565b60006108e782610e5a565b60606004805461070690612075565b6001600160a01b0381166000908152600e602052604081205460ff16610def5750600019919050565b506001600160a01b03166000908152600d602052604090205490565b60006108e33384610a45856040518060600160405280602581526020016122cd602591393360009081526001602090815260408083206001600160a01b038d16845290915290205491906117b0565b6001600160a01b0381166000908152600960205260408120546108e790610e8084610a54565b90611a0a565b60006108e3338484611742565b6005546001600160a01b03163314610eed5760405162461bcd60e51b815260206004820181905260248201527f4f776e61626c653a2063616c6c6572206973206e6f7420746865206f776e65726044820152606401610b13565b6000610ef860025490565b11610f0257600080fd5b8015610f8b57610f42610f1460025490565b610f2f837001000000000000000000000000000000006117ea565b610f399190612109565b6007549061194c565b60075560405181815233907fa493a9229478c3fcd73f66d2cdeb7f94fd0f341da924d1054236d784541165119060200160405180910390a2600a54610f87908261194c565b600a555b50565b6005546000906001600160a01b03163314610feb5760405162461bcd60e51b815260206004820181905260248201527f4f776e61626c653a2063616c6c6572206973206e6f7420746865206f776e65726044820152606401610b13565b6000610ff684611a4c565b90508015611062576001600160a01b038416600081815260116020526040908190204290555184151591907fa2c38e2d2fb7e3e1912d937fd1ca11ed6d51864dee4cfa7a7bf02becd7acf092906110509085815260200190565b60405180910390a360019150506108e7565b5060009392505050565b6005546001600160a01b031633146110c65760405162461bcd60e51b815260206004820181905260248201527f4f776e61626c653a2063616c6c6572206973206e6f7420746865206f776e65726044820152606401610b13565b6001600160a01b03821660009081526010602052604090205460ff16156110eb575050565b601354811061110d576110fe82826118ed565b6111088282610920565b611121565b6111188260006118ed565b61112182610789565b61112c826001610f8e565b505050565b6005546001600160a01b0316331461118b5760405162461bcd60e51b815260206004820181905260248201527f4f776e61626c653a2063616c6c6572206973206e6f7420746865206f776e65726044820152606401610b13565b610e1081101580156111a05750620151808111155b6112385760405162461bcd60e51b815260206004820152604f60248201527f5544414f546f6b656e5f4469766964656e645f547261636b65723a20636c616960448201527f6d57616974206d757374206265207570646174656420746f206265747765656e60648201527f203120616e6420323420686f7572730000000000000000000000000000000000608482015260a401610b13565b6012548114156112d65760405162461bcd60e51b815260206004820152604160248201527f5544414f546f6b656e5f4469766964656e645f547261636b65723a2043616e6e60448201527f6f742075706461746520636c61696d5761697420746f2073616d652076616c7560648201527f6500000000000000000000000000000000000000000000000000000000000000608482015260a401610b13565b60125460405182907f474ea64804364a1e29a4487ddb63c3342a2dd826ccd8acf48825e680a0e6f20f90600090a3601255565b6005546001600160a01b031633146113635760405162461bcd60e51b815260206004820181905260248201527f4f776e61626c653a2063616c6c6572206973206e6f7420746865206f776e65726044820152606401610b13565b6001600160a01b0381166113df5760405162461bcd60e51b815260206004820152602660248201527f4f776e61626c653a206e6577206f776e657220697320746865207a65726f206160448201527f64647265737300000000000000000000000000000000000000000000000000006064820152608401610b13565b610f8b816119ab565b8060008080808080806113fa88610dc6565b965060001995506000871261145c57600f5487111561142857600f54611421908890611bca565b955061145c565b600f54600b546000911061143d57600061144c565b600f54600b5461144c91611a0a565b9050611458888261189c565b9650505b61146588610e5a565b945061147088610a54565b6001600160a01b03891660009081526011602052604090205490945092508261149a5760006114a8565b6012546114a890849061194c565b91504282116114b85760006114c2565b6114c28242611a0a565b9050919395975091939597565b600b5460009081908190806114ef575050600f54600092508291506115e3565b600f546000805a90506000805b898410801561150a57508582105b156115d257846115198161212b565b600b549096508610905061152c57600094505b6000600b6000018681548110611544576115446120dd565b60009182526020808320909101546001600160a01b0316808352601190915260409091205490915061157590611c07565b1561159857611585816001610f8e565b1561159857816115948161212b565b9250505b826115a28161212b565b93505060005a9050808511156115c9576115c66115bf8683611a0a565b879061194c565b95505b93506114fc9050565b600f85905590975095509193505050505b9193909250565b6001600160a01b0383166116655760405162461bcd60e51b8152602060048201526024808201527f45524332303a20617070726f76652066726f6d20746865207a65726f2061646460448201527f72657373000000000000000000000000000000000000000000000000000000006064820152608401610b13565b6001600160a01b0382166116e15760405162461bcd60e51b815260206004820152602260248201527f45524332303a20617070726f766520746f20746865207a65726f20616464726560448201527f73730000000000000000000000000000000000000000000000000000000000006064820152608401610b13565b6001600160a01b0383811660008181526001602090815260408083209487168084529482529182902085905590518481527f8c5be1e5ebec7d5bd14f71427d1e84f3dd0314c0f7b2291e5b200ac8c7c3b925910160405180910390a3505050565b60405162461bcd60e51b815260206004820152602660248201527f4469766964656e645f547261636b65723a204e6f207472616e7366657273206160448201527f6c6c6f77656400000000000000000000000000000000000000000000000000006064820152608401610b13565b600081848411156117d45760405162461bcd60e51b8152600401610b139190611ed5565b5060006117e184866120c6565b95945050505050565b6000826117f9575060006108e7565b60006118058385612146565b9050826118128583612109565b146118855760405162461bcd60e51b815260206004820152602160248201527f536166654d6174683a206d756c7469706c69636174696f6e206f766572666c6f60448201527f77000000000000000000000000000000000000000000000000000000000000006064820152608401610b13565b9392505050565b600081818112156108e757600080fd5b6000806118a98385612165565b9050600083121580156118bc5750838112155b806118d157506000831280156118d157508381125b61188557600080fd5b6000808212156118e957600080fd5b5090565b6001600160a01b0382166000908152602081905260409020548082111561192c57600061191a8383611a0a565b90506119268482611c2e565b50505050565b8082101561112c5760006119408284611a0a565b90506119268482611c92565b60008061195983856121d9565b9050838110156118855760405162461bcd60e51b815260206004820152601b60248201527f536166654d6174683a206164646974696f6e206f766572666c6f7700000000006044820152606401610b13565b600580546001600160a01b0383811673ffffffffffffffffffffffffffffffffffffffff19831681179093556040519116919082907f8be0079c531659141344cd1fd0a4f28419497f9722a3daafe3b4186f6b6457e090600090a35050565b600061188583836040518060400160405280601e81526020017f536166654d6174683a207375627472616374696f6e206f766572666c6f7700008152506117b0565b600080611a5883610e5a565b90508015611bc1576001600160a01b038316600090815260096020526040902054611a83908261194c565b6001600160a01b038416600081815260096020526040908190209290925590517fee503bee2bb6a87e57bc57db795f98137327401a0e7b7ce42e37926cc1a9ca4d90611ad29084815260200190565b60405180910390a26006546040517fa9059cbb0000000000000000000000000000000000000000000000000000000081526001600160a01b03858116600483015260248201849052600092169063a9059cbb906044016020604051808303816000875af1158015611b47573d6000803e3d6000fd5b505050506040513d601f19601f82011682018060405250810190611b6b91906121f1565b905080611bba576001600160a01b038416600090815260096020526040902054611b959083611a0a565b6001600160a01b03909416600090815260096020526040812094909455509192915050565b5092915050565b50600092915050565b600080611bd7838561220e565b905060008312158015611bea5750838113155b806118d157506000831280156118d1575083811361188557600080fd5b600042821115611c1957506000919050565b601254611c264284611a0a565b101592915050565b611c388282611cd6565b611c72611c53610aa3836007546117ea90919063ffffffff16565b6001600160a01b03841660009081526008602052604090205490611bca565b6001600160a01b0390921660009081526008602052604090209190915550565b611c9c8282611db5565b611c72611cb7610aa3836007546117ea90919063ffffffff16565b6001600160a01b0384166000908152600860205260409020549061189c565b6001600160a01b038216611d2c5760405162461bcd60e51b815260206004820152601f60248201527f45524332303a206361737420746f20746865207a65726f2061646472657373006044820152606401610b13565b600254611d39908261194c565b6002556001600160a01b038216600090815260208190526040902054611d5f908261194c565b6001600160a01b038316600081815260208181526040808320949094559251848152919290917fddf252ad1be2c89b69c2b068fc378daa952ba7f163c4a11628f55a4df523b3ef91015b60405180910390a35050565b6001600160a01b038216611e315760405162461bcd60e51b815260206004820152602160248201527f45524332303a206275726e2066726f6d20746865207a65726f2061646472657360448201527f73000000000000000000000000000000000000000000000000000000000000006064820152608401610b13565b611e6e81604051806060016040528060228152602001612283602291396001600160a01b03851660009081526020819052604090205491906117b0565b6001600160a01b038316600090815260208190526040902055600254611e949082611a0a565b6002556040518181526000906001600160a01b038416907fddf252ad1be2c89b69c2b068fc378daa952ba7f163c4a11628f55a4df523b3ef90602001611da9565b600060208083528351808285015260005b81811015611f0257858101830151858201604001528201611ee6565b81811115611f14576000604083870101525b50601f017fffffffffffffffffffffffffffffffffffffffffffffffffffffffffffffffe016929092016040019392505050565b6001600160a01b0381168114610f8b57600080fd5b600060208284031215611f6f57600080fd5b813561188581611f48565b60008060408385031215611f8d57600080fd5b8235611f9881611f48565b946020939093013593505050565b600060208284031215611fb857600080fd5b5035919050565b600080600060608486031215611fd457600080fd5b8335611fdf81611f48565b92506020840135611fef81611f48565b929592945050506040919091013590565b8015158114610f8b57600080fd5b6000806040838503121561202157600080fd5b823561202c81611f48565b9150602083013561203c81612000565b809150509250929050565b6000806040838503121561205a57600080fd5b823561206581611f48565b9150602083013561203c81611f48565b600181811c9082168061208957607f821691505b602082108114156120aa57634e487b7160e01b600052602260045260246000fd5b50919050565b634e487b7160e01b600052601160045260246000fd5b6000828210156120d8576120d86120b0565b500390565b634e487b7160e01b600052603260045260246000fd5b634e487b7160e01b600052603160045260246000fd5b60008261212657634e487b7160e01b600052601260045260246000fd5b500490565b600060001982141561213f5761213f6120b0565b5060010190565b6000816000190483118215151615612160576121606120b0565b500290565b6000808212827f7fffffffffffffffffffffffffffffffffffffffffffffffffffffffffffffff0384138115161561219f5761219f6120b0565b827f80000000000000000000000000000000000000000000000000000000000000000384128116156121d3576121d36120b0565b50500190565b600082198211156121ec576121ec6120b0565b500190565b60006020828403121561220357600080fd5b815161188581612000565b6000808312837f800000000000000000000000000000000000000000000000000000000000000001831281151615612248576122486120b0565b837f7fffffffffffffffffffffffffffffffffffffffffffffffffffffffffffffff01831381161561227c5761227c6120b0565b5050039056fe45524332303a206275726e20616d6f756e7420657863656564732062616c616e636545524332303a207472616e7366657220616d6f756e74206578636565647320616c6c6f77616e636545524332303a2064656372656173656420616c6c6f77616e63652062656c6f77207a65726fa2646970667358221220f8a3f4a7266e22d8bbc8295d82e5957c6124baa48dfb1fc41f2c7b4f445566e364736f6c634300080b0033",
  "linkReferences": {},
  "deployedLinkReferences": {}
}