{
  "_format": "hh-sol-artifact-1",
  "contractName": "TokenDividendTracker",
  "sourceName": "contracts/PassiveInu.sol",
  "abi": [
    {
      "inputs": [
        {
          "internalType": "address",
          "name": "_rewardTokenAddress",
          "type": "address"
        },
        {
          "internalType": "uint256",
          "name": "_minimumTokenBalanceForDividends",
          "type": "uint256"
        }
      ],
      "stateMutability": "nonpayable",
      "type": "constructor"
    },
    {
      "anonymous": false,
      "inputs": [
        {
          "indexed": true,
          "internalType": "address",
          "name": "owner",
          "type": "address"
        },
        {
          "indexed": true,
          "internalType": "address",
          "name": "spender",
          "type": "address"
        },
        {
          "indexed": false,
          "internalType": "uint256",
          "name": "value",
          "type": "uint256"
        }
      ],
      "name": "Approval",
      "type": "event"
    },
    {
      "anonymous": false,
      "inputs": [
        {
          "indexed": true,
          "internalType": "address",
          "name": "account",
          "type": "address"
        },
        {
          "indexed": false,
          "internalType": "uint256",
          "name": "amount",
          "type": "uint256"
        },
        {
          "indexed": true,
          "internalType": "bool",
          "name": "automatic",
          "type": "bool"
        }
      ],
      "name": "Claim",
      "type": "event"
    },
    {
      "anonymous": false,
      "inputs": [
        {
          "indexed": true,
          "internalType": "uint256",
          "name": "newValue",
          "type": "uint256"
        },
        {
          "indexed": true,
          "internalType": "uint256",
          "name": "oldValue",
          "type": "uint256"
        }
      ],
      "name": "ClaimWaitUpdated",
      "type": "event"
    },
    {
      "anonymous": false,
      "inputs": [
        {
          "indexed": true,
          "internalType": "address",
          "name": "to",
          "type": "address"
        },
        {
          "indexed": false,
          "internalType": "uint256",
          "name": "weiAmount",
          "type": "uint256"
        }
      ],
      "name": "DividendWithdrawn",
      "type": "event"
    },
    {
      "anonymous": false,
      "inputs": [
        {
          "indexed": true,
          "internalType": "address",
          "name": "from",
          "type": "address"
        },
        {
          "indexed": false,
          "internalType": "uint256",
          "name": "weiAmount",
          "type": "uint256"
        }
      ],
      "name": "DividendsDistributed",
      "type": "event"
    },
    {
      "anonymous": false,
      "inputs": [
        {
          "indexed": true,
          "internalType": "address",
          "name": "account",
          "type": "address"
        }
      ],
      "name": "ExcludeFromDividends",
      "type": "event"
    },
    {
      "anonymous": false,
      "inputs": [
        {
          "indexed": true,
          "internalType": "address",
          "name": "previousOwner",
          "type": "address"
        },
        {
          "indexed": true,
          "internalType": "address",
          "name": "newOwner",
          "type": "address"
        }
      ],
      "name": "OwnershipTransferred",
      "type": "event"
    },
    {
      "anonymous": false,
      "inputs": [
        {
          "indexed": true,
          "internalType": "address",
          "name": "from",
          "type": "address"
        },
        {
          "indexed": true,
          "internalType": "address",
          "name": "to",
          "type": "address"
        },
        {
          "indexed": false,
          "internalType": "uint256",
          "name": "value",
          "type": "uint256"
        }
      ],
      "name": "Transfer",
      "type": "event"
    },
    {
      "inputs": [
        {
          "internalType": "address",
          "name": "key",
          "type": "address"
        }
      ],
      "name": "MAPGet",
      "outputs": [
        {
          "internalType": "uint256",
          "name": "",
          "type": "uint256"
        }
      ],
      "stateMutability": "view",
      "type": "function"
    },
    {
      "inputs": [
        {
          "internalType": "address",
          "name": "key",
          "type": "address"
        }
      ],
      "name": "MAPGetIndexOfKey",
      "outputs": [
        {
          "internalType": "int256",
          "name": "",
          "type": "int256"
        }
      ],
      "stateMutability": "view",
      "type": "function"
    },
    {
      "inputs": [
        {
          "internalType": "uint256",
          "name": "index",
          "type": "uint256"
        }
      ],
      "name": "MAPGetKeyAtIndex",
      "outputs": [
        {
          "internalType": "address",
          "name": "",
          "type": "address"
        }
      ],
      "stateMutability": "view",
      "type": "function"
    },
    {
      "inputs": [
        {
          "internalType": "address",
          "name": "key",
          "type": "address"
        }
      ],
      "name": "MAPRemove",
      "outputs": [],
      "stateMutability": "nonpayable",
      "type": "function"
    },
    {
      "inputs": [
        {
          "internalType": "address",
          "name": "key",
          "type": "address"
        },
        {
          "internalType": "uint256",
          "name": "val",
          "type": "uint256"
        }
      ],
      "name": "MAPSet",
      "outputs": [],
      "stateMutability": "nonpayable",
      "type": "function"
    },
    {
      "inputs": [],
      "name": "MAPSize",
      "outputs": [
        {
          "internalType": "uint256",
          "name": "",
          "type": "uint256"
        }
      ],
      "stateMutability": "view",
      "type": "function"
    },
    {
      "inputs": [],
      "name": "REWARD_TOKEN",
      "outputs": [
        {
          "internalType": "address",
          "name": "",
          "type": "address"
        }
      ],
      "stateMutability": "view",
      "type": "function"
    },
    {
      "inputs": [
        {
          "internalType": "address",
          "name": "_owner",
          "type": "address"
        }
      ],
      "name": "accumulativeDividendOf",
      "outputs": [
        {
          "internalType": "uint256",
          "name": "",
          "type": "uint256"
        }
      ],
      "stateMutability": "view",
      "type": "function"
    },
    {
      "inputs": [
        {
          "internalType": "address",
          "name": "owner",
          "type": "address"
        },
        {
          "internalType": "address",
          "name": "spender",
          "type": "address"
        }
      ],
      "name": "allowance",
      "outputs": [
        {
          "internalType": "uint256",
          "name": "",
          "type": "uint256"
        }
      ],
      "stateMutability": "view",
      "type": "function"
    },
    {
      "inputs": [
        {
          "internalType": "address",
          "name": "spender",
          "type": "address"
        },
        {
          "internalType": "uint256",
          "name": "amount",
          "type": "uint256"
        }
      ],
      "name": "approve",
      "outputs": [
        {
          "internalType": "bool",
          "name": "",
          "type": "bool"
        }
      ],
      "stateMutability": "nonpayable",
      "type": "function"
    },
    {
      "inputs": [
        {
          "internalType": "address",
          "name": "account",
          "type": "address"
        }
      ],
      "name": "balanceOf",
      "outputs": [
        {
          "internalType": "uint256",
          "name": "",
          "type": "uint256"
        }
      ],
      "stateMutability": "view",
      "type": "function"
    },
    {
      "inputs": [],
      "name": "claimWait",
      "outputs": [
        {
          "internalType": "uint256",
          "name": "",
          "type": "uint256"
        }
      ],
      "stateMutability": "view",
      "type": "function"
    },
    {
      "inputs": [],
      "name": "decimals",
      "outputs": [
        {
          "internalType": "uint8",
          "name": "",
          "type": "uint8"
        }
      ],
      "stateMutability": "view",
      "type": "function"
    },
    {
      "inputs": [
        {
          "internalType": "address",
          "name": "spender",
          "type": "address"
        },
        {
          "internalType": "uint256",
          "name": "subtractedValue",
          "type": "uint256"
        }
      ],
      "name": "decreaseAllowance",
      "outputs": [
        {
          "internalType": "bool",
          "name": "",
          "type": "bool"
        }
      ],
      "stateMutability": "nonpayable",
      "type": "function"
    },
    {
      "inputs": [
        {
          "internalType": "uint256",
          "name": "amount",
          "type": "uint256"
        }
      ],
      "name": "distributeCAKEDividends",
      "outputs": [],
      "stateMutability": "nonpayable",
      "type": "function"
    },
    {
      "inputs": [
        {
          "internalType": "address",
          "name": "_owner",
          "type": "address"
        }
      ],
      "name": "dividendOf",
      "outputs": [
        {
          "internalType": "uint256",
          "name": "",
          "type": "uint256"
        }
      ],
      "stateMutability": "view",
      "type": "function"
    },
    {
      "inputs": [
        {
          "internalType": "address",
          "name": "account",
          "type": "address"
        }
      ],
      "name": "excludeFromDividends",
      "outputs": [],
      "stateMutability": "nonpayable",
      "type": "function"
    },
    {
      "inputs": [
        {
          "internalType": "address",
          "name": "",
          "type": "address"
        }
      ],
      "name": "excludedFromDividends",
      "outputs": [
        {
          "internalType": "bool",
          "name": "",
          "type": "bool"
        }
      ],
      "stateMutability": "view",
      "type": "function"
    },
    {
      "inputs": [
        {
          "internalType": "address",
          "name": "_account",
          "type": "address"
        }
      ],
      "name": "getAccount",
      "outputs": [
        {
          "internalType": "address",
          "name": "account",
          "type": "address"
        },
        {
          "internalType": "int256",
          "name": "index",
          "type": "int256"
        },
        {
          "internalType": "int256",
          "name": "iterationsUntilProcessed",
          "type": "int256"
        },
        {
          "internalType": "uint256",
          "name": "withdrawableDividends",
          "type": "uint256"
        },
        {
          "internalType": "uint256",
          "name": "totalDividends",
          "type": "uint256"
        },
        {
          "internalType": "uint256",
          "name": "lastClaimTime",
          "type": "uint256"
        },
        {
          "internalType": "uint256",
          "name": "nextClaimTime",
          "type": "uint256"
        },
        {
          "internalType": "uint256",
          "name": "secondsUntilAutoClaimAvailable",
          "type": "uint256"
        }
      ],
      "stateMutability": "view",
      "type": "function"
    },
    {
      "inputs": [
        {
          "internalType": "uint256",
          "name": "index",
          "type": "uint256"
        }
      ],
      "name": "getAccountAtIndex",
      "outputs": [
        {
          "internalType": "address",
          "name": "",
          "type": "address"
        },
        {
          "internalType": "int256",
          "name": "",
          "type": "int256"
        },
        {
          "internalType": "int256",
          "name": "",
          "type": "int256"
        },
        {
          "internalType": "uint256",
          "name": "",
          "type": "uint256"
        },
        {
          "internalType": "uint256",
          "name": "",
          "type": "uint256"
        },
        {
          "internalType": "uint256",
          "name": "",
          "type": "uint256"
        },
        {
          "internalType": "uint256",
          "name": "",
          "type": "uint256"
        },
        {
          "internalType": "uint256",
          "name": "",
          "type": "uint256"
        }
      ],
      "stateMutability": "view",
      "type": "function"
    },
    {
      "inputs": [],
      "name": "getLastProcessedIndex",
      "outputs": [
        {
          "internalType": "uint256",
          "name": "",
          "type": "uint256"
        }
      ],
      "stateMutability": "view",
      "type": "function"
    },
    {
      "inputs": [],
      "name": "getNumberOfTokenHolders",
      "outputs": [
        {
          "internalType": "uint256",
          "name": "",
          "type": "uint256"
        }
      ],
      "stateMutability": "view",
      "type": "function"
    },
    {
      "inputs": [
        {
          "internalType": "address",
          "name": "spender",
          "type": "address"
        },
        {
          "internalType": "uint256",
          "name": "addedValue",
          "type": "uint256"
        }
      ],
      "name": "increaseAllowance",
      "outputs": [
        {
          "internalType": "bool",
          "name": "",
          "type": "bool"
        }
      ],
      "stateMutability": "nonpayable",
      "type": "function"
    },
    {
      "inputs": [
        {
          "internalType": "address",
          "name": "account",
          "type": "address"
        }
      ],
      "name": "isExcludedFromDividends",
      "outputs": [
        {
          "internalType": "bool",
          "name": "",
          "type": "bool"
        }
      ],
      "stateMutability": "view",
      "type": "function"
    },
    {
      "inputs": [
        {
          "internalType": "address",
          "name": "",
          "type": "address"
        }
      ],
      "name": "lastClaimTimes",
      "outputs": [
        {
          "internalType": "uint256",
          "name": "",
          "type": "uint256"
        }
      ],
      "stateMutability": "view",
      "type": "function"
    },
    {
      "inputs": [],
      "name": "lastProcessedIndex",
      "outputs": [
        {
          "internalType": "uint256",
          "name": "",
          "type": "uint256"
        }
      ],
      "stateMutability": "view",
      "type": "function"
    },
    {
      "inputs": [],
      "name": "minimumTokenBalanceForDividends",
      "outputs": [
        {
          "internalType": "uint256",
          "name": "",
          "type": "uint256"
        }
      ],
      "stateMutability": "view",
      "type": "function"
    },
    {
      "inputs": [],
      "name": "name",
      "outputs": [
        {
          "internalType": "string",
          "name": "",
          "type": "string"
        }
      ],
      "stateMutability": "view",
      "type": "function"
    },
    {
      "inputs": [],
      "name": "owner",
      "outputs": [
        {
          "internalType": "address",
          "name": "",
          "type": "address"
        }
      ],
      "stateMutability": "view",
      "type": "function"
    },
    {
      "inputs": [
        {
          "internalType": "uint256",
          "name": "gas",
          "type": "uint256"
        }
      ],
      "name": "process",
      "outputs": [
        {
          "internalType": "uint256",
          "name": "",
          "type": "uint256"
        },
        {
          "internalType": "uint256",
          "name": "",
          "type": "uint256"
        },
        {
          "internalType": "uint256",
          "name": "",
          "type": "uint256"
        }
      ],
      "stateMutability": "nonpayable",
      "type": "function"
    },
    {
      "inputs": [
        {
          "internalType": "address payable",
          "name": "account",
          "type": "address"
        },
        {
          "internalType": "bool",
          "name": "automatic",
          "type": "bool"
        }
      ],
      "name": "processAccount",
      "outputs": [
        {
          "internalType": "bool",
          "name": "",
          "type": "bool"
        }
      ],
      "stateMutability": "nonpayable",
      "type": "function"
    },
    {
      "inputs": [],
      "name": "renounceOwnership",
      "outputs": [],
      "stateMutability": "nonpayable",
      "type": "function"
    },
    {
      "inputs": [
        {
          "internalType": "address payable",
          "name": "account",
          "type": "address"
        },
        {
          "internalType": "uint256",
          "name": "newBalance",
          "type": "uint256"
        }
      ],
      "name": "setBalance",
      "outputs": [],
      "stateMutability": "nonpayable",
      "type": "function"
    },
    {
      "inputs": [
        {
          "internalType": "uint256",
          "name": "val",
          "type": "uint256"
        }
      ],
      "name": "setMinimumTokenBalanceForDividends",
      "outputs": [],
      "stateMutability": "nonpayable",
      "type": "function"
    },
    {
      "inputs": [],
      "name": "symbol",
      "outputs": [
        {
          "internalType": "string",
          "name": "",
          "type": "string"
        }
      ],
      "stateMutability": "view",
      "type": "function"
    },
    {
      "inputs": [],
      "name": "totalDividendsDistributed",
      "outputs": [
        {
          "internalType": "uint256",
          "name": "",
          "type": "uint256"
        }
      ],
      "stateMutability": "view",
      "type": "function"
    },
    {
      "inputs": [],
      "name": "totalSupply",
      "outputs": [
        {
          "internalType": "uint256",
          "name": "",
          "type": "uint256"
        }
      ],
      "stateMutability": "view",
      "type": "function"
    },
    {
      "inputs": [
        {
          "internalType": "address",
          "name": "recipient",
          "type": "address"
        },
        {
          "internalType": "uint256",
          "name": "amount",
          "type": "uint256"
        }
      ],
      "name": "transfer",
      "outputs": [
        {
          "internalType": "bool",
          "name": "",
          "type": "bool"
        }
      ],
      "stateMutability": "nonpayable",
      "type": "function"
    },
    {
      "inputs": [
        {
          "internalType": "address",
          "name": "sender",
          "type": "address"
        },
        {
          "internalType": "address",
          "name": "recipient",
          "type": "address"
        },
        {
          "internalType": "uint256",
          "name": "amount",
          "type": "uint256"
        }
      ],
      "name": "transferFrom",
      "outputs": [
        {
          "internalType": "bool",
          "name": "",
          "type": "bool"
        }
      ],
      "stateMutability": "nonpayable",
      "type": "function"
    },
    {
      "inputs": [
        {
          "internalType": "address",
          "name": "newOwner",
          "type": "address"
        }
      ],
      "name": "transferOwnership",
      "outputs": [],
      "stateMutability": "nonpayable",
      "type": "function"
    },
    {
      "inputs": [
        {
          "internalType": "uint256",
          "name": "newClaimWait",
          "type": "uint256"
        }
      ],
      "name": "updateClaimWait",
      "outputs": [],
      "stateMutability": "nonpayable",
      "type": "function"
    },
    {
      "inputs": [],
      "name": "withdrawDividend",
      "outputs": [],
      "stateMutability": "pure",
      "type": "function"
    },
    {
      "inputs": [
        {
          "internalType": "address",
          "name": "_owner",
          "type": "address"
        }
      ],
      "name": "withdrawableDividendOf",
      "outputs": [
        {
          "internalType": "uint256",
          "name": "",
          "type": "uint256"
        }
      ],
      "stateMutability": "view",
      "type": "function"
    },
    {
      "inputs": [
        {
          "internalType": "address",
          "name": "_owner",
          "type": "address"
        }
      ],
      "name": "withdrawnDividendOf",
      "outputs": [
        {
          "internalType": "uint256",
          "name": "",
          "type": "uint256"
        }
      ],
      "stateMutability": "view",
      "type": "function"
    }
  ],
  "bytecode": "0x60806040523480156200001157600080fd5b50604051620025b1380380620025b1833981016040819052620000349162000201565b6040518060400160405280600f81526020016e2234bb34b232b72faa3930b1b5b2b960891b8152506040518060400160405280601081526020016f2234bb34b232b7322faa3930b1b5b2b960811b8152508382828160039080519060200190620000a09291906200015b565b508051620000b69060049060208401906200015b565b505050620000d3620000cd6200010560201b60201c565b62000109565b600680546001600160a01b0319166001600160a01b03929092169190911790555050610e10601255601355506200027a565b3390565b600580546001600160a01b038381166001600160a01b0319831681179093556040519116919082907f8be0079c531659141344cd1fd0a4f28419497f9722a3daafe3b4186f6b6457e090600090a35050565b82805462000169906200023d565b90600052602060002090601f0160209004810192826200018d5760008555620001d8565b82601f10620001a857805160ff1916838001178555620001d8565b82800160010185558215620001d8579182015b82811115620001d8578251825591602001919060010190620001bb565b50620001e6929150620001ea565b5090565b5b80821115620001e65760008155600101620001eb565b600080604083850312156200021557600080fd5b82516001600160a01b03811681146200022d57600080fd5b6020939093015192949293505050565b600181811c908216806200025257607f821691505b602082108114156200027457634e487b7160e01b600052602260045260246000fd5b50919050565b612327806200028a6000396000f3fe608060405234801561001057600080fd5b50600436106102f45760003560e01c806385a6b3ae11610191578063ba72a955116100e3578063e30443bc11610097578063f2fde38b11610071578063f2fde38b146106a3578063fbcbc0f1146106b6578063ffb2c479146106c957600080fd5b8063e30443bc14610675578063e7841ec014610688578063e98030c71461069057600080fd5b8063be10b614116100c8578063be10b61414610607578063c705c56914610610578063dd62ed3e1461063c57600080fd5b8063ba72a955146105e1578063bc4c4b37146105f457600080fd5b8063a3395cb411610145578063a9059cbb1161011f578063a9059cbb146105a5578063aafd847a146105b8578063b1181e551461034f57600080fd5b8063a3395cb41461056c578063a457c2d71461057f578063a8b9d2401461059257600080fd5b806391b89fba1161017657806391b89fba1461053e57806395d89b411461055157806399248ea71461055957600080fd5b806385a6b3ae146105245780638da5cb5b1461052d57600080fd5b8063313ce5671161024a578063556cafb0116101fe5780636f2789ec116101d85780636f2789ec146104ea57806370a08231146104f3578063715018a61461051c57600080fd5b8063556cafb0146104a65780635ebf4db9146104cf5780636a474002146104e257600080fd5b8063395093511161022f57806339509351146104185780634e7b827f1461042b5780635183d6fd1461044e57600080fd5b8063313ce567146103f657806331e79db01461040557600080fd5b80631105e740116102ac57806323b872dd1161028657806323b872dd146103c757806327ce0147146103da5780633009a609146103ed57600080fd5b80631105e7401461038c57806318160ddd1461039f578063226cfa3d146103a757600080fd5b8063095ea7b3116102dd578063095ea7b31461032c57806309bbedde1461034f57806310a8c46b1461036157600080fd5b806306fdde03146102f95780630716c61114610317575b600080fd5b6103016106f7565b60405161030e9190611ed5565b60405180910390f35b61032a610325366004611f5d565b610789565b005b61033f61033a366004611f7a565b6108d6565b604051901515815260200161030e565b600b545b60405190815260200161030e565b61037461036f366004611fa6565b6108ed565b6040516001600160a01b03909116815260200161030e565b61032a61039a366004611f7a565b610920565b600254610353565b6103536103b5366004611f5d565b60116020526000908152604090205481565b61033f6103d5366004611fbf565b6109eb565b6103536103e8366004611f5d565b610a54565b610353600f5481565b6040516012815260200161030e565b61032a610413366004611f5d565b610abd565b61033f610426366004611f7a565b610bb0565b61033f610439366004611f5d565b60106020526000908152604090205460ff1681565b61046161045c366004611fa6565b610be6565b604080516001600160a01b0390991689526020890197909752958701949094526060860192909252608085015260a084015260c083015260e08201526101000161030e565b6103536104b4366004611f5d565b6001600160a01b03166000908152600c602052604090205490565b61032a6104dd366004611fa6565b610c53565b61032a610cb2565b61035360125481565b610353610501366004611f5d565b6001600160a01b031660009081526020819052604090205490565b61032a610d48565b610353600a5481565b6005546001600160a01b0316610374565b61035361054c366004611f5d565b610dac565b610301610db7565b600654610374906001600160a01b031681565b61035361057a366004611f5d565b610dc6565b61033f61058d366004611f7a565b610e0b565b6103536105a0366004611f5d565b610e5a565b61033f6105b3366004611f7a565b610e86565b6103536105c6366004611f5d565b6001600160a01b031660009081526009602052604090205490565b61032a6105ef366004611fa6565b610e93565b61033f61060236600461200e565b610f8e565b61035360135481565b61033f61061e366004611f5d565b6001600160a01b031660009081526010602052604090205460ff1690565b61035361064a366004612047565b6001600160a01b03918216600090815260016020908152604080832093909416825291909152205490565b61032a610683366004611f7a565b61106c565b600f54610353565b61032a61069e366004611fa6565b611131565b61032a6106b1366004611f5d565b611309565b6104616106c4366004611f5d565b6113e8565b6106dc6106d7366004611fa6565b6114cf565b6040805193845260208401929092529082015260600161030e565b60606003805461070690612075565b80601f016020809104026020016040519081016040528092919081815260200182805461073290612075565b801561077f5780601f106107545761010080835404028352916020019161077f565b820191906000526020600020905b81548152906001019060200180831161076257829003601f168201915b5050505050905090565b6001600160a01b0381166000908152600e602052604090205460ff166107ac5750565b6001600160a01b0381166000908152600e60209081526040808320805460ff19169055600c8252808320839055600d909152812054600b549091906107f3906001906120c6565b90506000600b600001828154811061080d5761080d6120dd565b60009182526020808320909101546001600160a01b03908116808452600d90925260408084208790559087168352822091909155600b805491925082918590811061085a5761085a6120dd565b6000918252602090912001805473ffffffffffffffffffffffffffffffffffffffff19166001600160a01b0392909216919091179055600b8054806108a1576108a16120f3565b6000828152602090208101600019908101805473ffffffffffffffffffffffffffffffffffffffff1916905501905550505050565b60006108e33384846115ea565b5060015b92915050565b6000600b6000018281548110610905576109056120dd565b6000918252602090912001546001600160a01b031692915050565b6001600160a01b0382166000908152600e602052604090205460ff161561095e576001600160a01b03919091166000908152600c6020526040902055565b6001600160a01b0382166000818152600e60209081526040808320805460ff19166001908117909155600c8352818420869055600b8054600d909452918420839055820181559091527f0175b7a638427703f0dbe7bb9bbf987a2551717b34e79f33b5b1008d1fa01db901805473ffffffffffffffffffffffffffffffffffffffff191690911790555050565b60006109f8848484611742565b610a4a8433610a45856040518060600160405280602881526020016122a5602891396001600160a01b038a16600090815260016020908152604080832033845290915290205491906117b0565b6115ea565b5060019392505050565b6001600160a01b0381166000908152600860209081526040808320549183905282205460075470010000000000000000000000000000000092610ab392610aae92610aa891610aa391906117ea565b61188c565b9061189c565b6118da565b6108e79190612109565b6005546001600160a01b03163314610b1c5760405162461bcd60e51b815260206004820181905260248201527f4f776e61626c653a2063616c6c6572206973206e6f7420746865206f776e657260448201526064015b60405180910390fd5b6001600160a01b03811660009081526010602052604090205460ff1615610b4257600080fd5b6001600160a01b0381166000908152601060205260408120805460ff19166001179055610b709082906118ed565b610b7981610789565b6040516001600160a01b038216907fa878b31040b2e6d0a9a3d3361209db3908ba62014b0dca52adbaee451d128b2590600090a250565b3360008181526001602090815260408083206001600160a01b038716845290915281205490916108e3918590610a45908661194c565b600080600080600080600080610bfb600b5490565b8910610c20575060009650600019955085945086935083925082915081905080610c48565b6000610c2b8a6108ed565b9050610c36816113e8565b98509850985098509850985098509850505b919395975091939597565b6005546001600160a01b03163314610cad5760405162461bcd60e51b815260206004820181905260248201527f4f776e61626c653a2063616c6c6572206973206e6f7420746865206f776e65726044820152606401610b13565b601355565b60405162461bcd60e51b815260206004820152605b60248201527f4469766964656e645f547261636b65723a20776974686472617744697669646560448201527f6e642064697361626c65642e20557365207468652027636c61696d272066756e60648201527f6374696f6e206f6e20746865206d61696e20636f6e74726163742e0000000000608482015260a401610b13565b565b6005546001600160a01b03163314610da25760405162461bcd60e51b815260206004820181905260248201527f4f776e61626c653a2063616c6c6572206973206e6f7420746865206f776e65726044820152606401610b13565b610d4660006119ab565b60006108e782610e5a565b60606004805461070690612075565b6001600160a01b0381166000908152600e602052604081205460ff16610def5750600019919050565b506001600160a01b03166000908152600d602052604090205490565b60006108e33384610a45856040518060600160405280602581526020016122cd602591393360009081526001602090815260408083206001600160a01b038d16845290915290205491906117b0565b6001600160a01b0381166000908152600960205260408120546108e790610e8084610a54565b90611a0a565b60006108e3338484611742565b6005546001600160a01b03163314610eed5760405162461bcd60e51b815260206004820181905260248201527f4f776e61626c653a2063616c6c6572206973206e6f7420746865206f776e65726044820152606401610b13565b6000610ef860025490565b11610f0257600080fd5b8015610f8b57610f42610f1460025490565b610f2f837001000000000000000000000000000000006117ea565b610f399190612109565b6007549061194c565b60075560405181815233907fa493a9229478c3fcd73f66d2cdeb7f94fd0f341da924d1054236d784541165119060200160405180910390a2600a54610f87908261194c565b600a555b50565b6005546000906001600160a01b03163314610feb5760405162461bcd60e51b815260206004820181905260248201527f4f776e61626c653a2063616c6c6572206973206e6f7420746865206f776e65726044820152606401610b13565b6000610ff684611a4c565b90508015611062576001600160a01b038416600081815260116020526040908190204290555184151591907fa2c38e2d2fb7e3e1912d937fd1ca11ed6d51864dee4cfa7a7bf02becd7acf092906110509085815260200190565b60405180910390a360019150506108e7565b5060009392505050565b6005546001600160a01b031633146110c65760405162461bcd60e51b815260206004820181905260248201527f4f776e61626c653a2063616c6c6572206973206e6f7420746865206f776e65726044820152606401610b13565b6001600160a01b03821660009081526010602052604090205460ff16156110eb575050565b601354811061110d576110fe82826118ed565b6111088282610920565b611121565b6111188260006118ed565b61112182610789565b61112c826001610f8e565b505050565b6005546001600160a01b0316331461118b5760405162461bcd60e51b815260206004820181905260248201527f4f776e61626c653a2063616c6c6572206973206e6f7420746865206f776e65726044820152606401610b13565b610e1081101580156111a05750620151808111155b6112385760405162461bcd60e51b815260206004820152604f60248201527f5544414f546f6b656e5f4469766964656e645f547261636b65723a20636c616960448201527f6d57616974206d757374206265207570646174656420746f206265747765656e60648201527f203120616e6420323420686f7572730000000000000000000000000000000000608482015260a401610b13565b6012548114156112d65760405162461bcd60e51b815260206004820152604160248201527f5544414f546f6b656e5f4469766964656e645f547261636b65723a2043616e6e60448201527f6f742075706461746520636c61696d5761697420746f2073616d652076616c7560648201527f6500000000000000000000000000000000000000000000000000000000000000608482015260a401610b13565b60125460405182907f474ea64804364a1e29a4487ddb63c3342a2dd826ccd8acf48825e680a0e6f20f90600090a3601255565b6005546001600160a01b031633146113635760405162461bcd60e51b815260206004820181905260248201527f4f776e61626c653a2063616c6c6572206973206e6f7420746865206f776e65726044820152606401610b13565b6001600160a01b0381166113df5760405162461bcd60e51b815260206004820152602660248201527f4f776e61626c653a206e6577206f776e657220697320746865207a65726f206160448201527f64647265737300000000000000000000000000000000000000000000000000006064820152608401610b13565b610f8b816119ab565b8060008080808080806113fa88610dc6565b965060001995506000871261145c57600f5487111561142857600f54611421908890611bca565b955061145c565b600f54600b546000911061143d57600061144c565b600f54600b5461144c91611a0a565b9050611458888261189c565b9650505b61146588610e5a565b945061147088610a54565b6001600160a01b03891660009081526011602052604090205490945092508261149a5760006114a8565b6012546114a890849061194c565b91504282116114b85760006114c2565b6114c28242611a0a565b9050919395975091939597565b600b5460009081908190806114ef575050600f54600092508291506115e3565b600f546000805a90506000805b898410801561150a57508582105b156115d257846115198161212b565b600b549096508610905061152c57600094505b6000600b6000018681548110611544576115446120dd565b60009182526020808320909101546001600160a01b0316808352601190915260409091205490915061157590611c07565b1561159857611585816001610f8e565b1561159857816115948161212b565b9250505b826115a28161212b565b93505060005a9050808511156115c9576115c66115bf8683611a0a565b879061194c565b95505b93506114fc9050565b600f85905590975095509193505050505b9193909250565b6001600160a01b0383166116655760405162461bcd60e51b8152602060048201526024808201527f45524332303a20617070726f76652066726f6d20746865207a65726f2061646460448201527f72657373000000000000000000000000000000000000000000000000000000006064820152608401610b13565b6001600160a01b0382166116e15760405162461bcd60e51b815260206004820152602260248201527f45524332303a20617070726f766520746f20746865207a65726f20616464726560448201527f73730000000000000000000000000000000000000000000000000000000000006064820152608401610b13565b6001600160a01b0383811660008181526001602090815260408083209487168084529482529182902085905590518481527f8c5be1e5ebec7d5bd14f71427d1e84f3dd0314c0f7b2291e5b200ac8c7c3b925910160405180910390a3505050565b60405162461bcd60e51b815260206004820152602660248201527f4469766964656e645f547261636b65723a204e6f207472616e7366657273206160448201527f6c6c6f77656400000000000000000000000000000000000000000000000000006064820152608401610b13565b600081848411156117d45760405162461bcd60e51b8152600401610b139190611ed5565b5060006117e184866120c6565b95945050505050565b6000826117f9575060006108e7565b60006118058385612146565b9050826118128583612109565b146118855760405162461bcd60e51b815260206004820152602160248201527f536166654d6174683a206d756c7469706c69636174696f6e206f766572666c6f60448201527f77000000000000000000000000000000000000000000000000000000000000006064820152608401610b13565b9392505050565b600081818112156108e757600080fd5b6000806118a98385612165565b9050600083121580156118bc5750838112155b806118d157506000831280156118d157508381125b61188557600080fd5b6000808212156118e957600080fd5b5090565b6001600160a01b0382166000908152602081905260409020548082111561192c57600061191a8383611a0a565b90506119268482611c2e565b50505050565b8082101561112c5760006119408284611a0a565b90506119268482611c92565b60008061195983856121d9565b9050838110156118855760405162461bcd60e51b815260206004820152601b60248201527f536166654d6174683a206164646974696f6e206f766572666c6f7700000000006044820152606401610b13565b600580546001600160a01b0383811673ffffffffffffffffffffffffffffffffffffffff19831681179093556040519116919082907f8be0079c531659141344cd1fd0a4f28419497f9722a3daafe3b4186f6b6457e090600090a35050565b600061188583836040518060400160405280601e81526020017f536166654d6174683a207375627472616374696f6e206f766572666c6f7700008152506117b0565b600080611a5883610e5a565b90508015611bc1576001600160a01b038316600090815260096020526040902054611a83908261194c565b6001600160a01b038416600081815260096020526040908190209290925590517fee503bee2bb6a87e57bc57db795f98137327401a0e7b7ce42e37926cc1a9ca4d90611ad29084815260200190565b60405180910390a26006546040517fa9059cbb0000000000000000000000000000000000000000000000000000000081526001600160a01b03858116600483015260248201849052600092169063a9059cbb906044016020604051808303816000875af1158015611b47573d6000803e3d6000fd5b505050506040513d601f19601f82011682018060405250810190611b6b91906121f1565b905080611bba576001600160a01b038416600090815260096020526040902054611b959083611a0a565b6001600160a01b03909416600090815260096020526040812094909455509192915050565b5092915050565b50600092915050565b600080611bd7838561220e565b905060008312158015611bea5750838113155b806118d157506000831280156118d1575083811361188557600080fd5b600042821115611c1957506000919050565b601254611c264284611a0a565b101592915050565b611c388282611cd6565b611c72611c53610aa3836007546117ea90919063ffffffff16565b6001600160a01b03841660009081526008602052604090205490611bca565b6001600160a01b0390921660009081526008602052604090209190915550565b611c9c8282611db5565b611c72611cb7610aa3836007546117ea90919063ffffffff16565b6001600160a01b0384166000908152600860205260409020549061189c565b6001600160a01b038216611d2c5760405162461bcd60e51b815260206004820152601f60248201527f45524332303a206361737420746f20746865207a65726f2061646472657373006044820152606401610b13565b600254611d39908261194c565b6002556001600160a01b038216600090815260208190526040902054611d5f908261194c565b6001600160a01b038316600081815260208181526040808320949094559251848152919290917fddf252ad1be2c89b69c2b068fc378daa952ba7f163c4a11628f55a4df523b3ef91015b60405180910390a35050565b6001600160a01b038216611e315760405162461bcd60e51b815260206004820152602160248201527f45524332303a206275726e2066726f6d20746865207a65726f2061646472657360448201527f73000000000000000000000000000000000000000000000000000000000000006064820152608401610b13565b611e6e81604051806060016040528060228152602001612283602291396001600160a01b03851660009081526020819052604090205491906117b0565b6001600160a01b038316600090815260208190526040902055600254611e949082611a0a565b6002556040518181526000906001600160a01b038416907fddf252ad1be2c89b69c2b068fc378daa952ba7f163c4a11628f55a4df523b3ef90602001611da9565b600060208083528351808285015260005b81811015611f0257858101830151858201604001528201611ee6565b81811115611f14576000604083870101525b50601f017fffffffffffffffffffffffffffffffffffffffffffffffffffffffffffffffe016929092016040019392505050565b6001600160a01b0381168114610f8b57600080fd5b600060208284031215611f6f57600080fd5b813561188581611f48565b60008060408385031215611f8d57600080fd5b8235611f9881611f48565b946020939093013593505050565b600060208284031215611fb857600080fd5b5035919050565b600080600060608486031215611fd457600080fd5b8335611fdf81611f48565b92506020840135611fef81611f48565b929592945050506040919091013590565b8015158114610f8b57600080fd5b6000806040838503121561202157600080fd5b823561202c81611f48565b9150602083013561203c81612000565b809150509250929050565b6000806040838503121561205a57600080fd5b823561206581611f48565b9150602083013561203c81611f48565b600181811c9082168061208957607f821691505b602082108114156120aa57634e487b7160e01b600052602260045260246000fd5b50919050565b634e487b7160e01b600052601160045260246000fd5b6000828210156120d8576120d86120b0565b500390565b634e487b7160e01b600052603260045260246000fd5b634e487b7160e01b600052603160045260246000fd5b60008261212657634e487b7160e01b600052601260045260246000fd5b500490565b600060001982141561213f5761213f6120b0565b5060010190565b6000816000190483118215151615612160576121606120b0565b500290565b6000808212827f7fffffffffffffffffffffffffffffffffffffffffffffffffffffffffffffff0384138115161561219f5761219f6120b0565b827f80000000000000000000000000000000000000000000000000000000000000000384128116156121d3576121d36120b0565b50500190565b600082198211156121ec576121ec6120b0565b500190565b60006020828403121561220357600080fd5b815161188581612000565b6000808312837f800000000000000000000000000000000000000000000000000000000000000001831281151615612248576122486120b0565b837f7fffffffffffffffffffffffffffffffffffffffffffffffffffffffffffffff01831381161561227c5761227c6120b0565b5050039056fe45524332303a206275726e20616d6f756e7420657863656564732062616c616e636545524332303a207472616e7366657220616d6f756e74206578636565647320616c6c6f77616e636545524332303a2064656372656173656420616c6c6f77616e63652062656c6f77207a65726fa2646970667358221220f8a3f4a7266e22d8bbc8295d82e5957c6124baa48dfb1fc41f2c7b4f445566e364736f6c634300080b0033",
  "linkReferences": {},
  "deployedLinkReferences": {}
}