{
  "_format": "hh-sol-artifact-1",
  "contractName": "GenericNFTPumpContract",
  "sourceName": "contracts/GenericNFTPumpContract.sol",
  "abi": [
    {
      "inputs": [
        {
          "internalType": "string",
          "name": "contractName",
          "type": "string"
        },
        {
          "internalType": "string",
          "name": "contractSymbol",
          "type": "string"
        },
        {
          "internalType": "address",
          "name": "_vault",
          "type": "address"
        },
        {
          "internalType": "address",
          "name": "_signer",
          "type": "address"
        },
        {
          "internalType": "string",
          "name": "__baseTokenURI",
          "type": "string"
        },
        {
          "internalType": "string",
          "name": "_hiddenMetadataUri",
          "type": "string"
        },
        {
          "internalType": "address[]",
          "name": "_payees",
          "type": "address[]"
        },
        {
          "internalType": "uint256[]",
          "name": "_shares",
          "type": "uint256[]"
        }
      ],
      "stateMutability": "payable",
      "type": "constructor"
    },
    {
      "anonymous": false,
      "inputs": [
        {
          "indexed": true,
          "internalType": "address",
          "name": "owner",
          "type": "address"
        },
        {
          "indexed": true,
          "internalType": "address",
          "name": "approved",
          "type": "address"
        },
        {
          "indexed": true,
          "internalType": "uint256",
          "name": "tokenId",
          "type": "uint256"
        }
      ],
      "name": "Approval",
      "type": "event"
    },
    {
      "anonymous": false,
      "inputs": [
        {
          "indexed": true,
          "internalType": "address",
          "name": "owner",
          "type": "address"
        },
        {
          "indexed": true,
          "internalType": "address",
          "name": "operator",
          "type": "address"
        },
        {
          "indexed": false,
          "internalType": "bool",
          "name": "approved",
          "type": "bool"
        }
      ],
      "name": "ApprovalForAll",
      "type": "event"
    },
    {
      "anonymous": false,
      "inputs": [
        {
          "indexed": true,
          "internalType": "contract IERC20",
          "name": "token",
          "type": "address"
        },
        {
          "indexed": false,
          "internalType": "address",
          "name": "to",
          "type": "address"
        },
        {
          "indexed": false,
          "internalType": "uint256",
          "name": "amount",
          "type": "uint256"
        }
      ],
      "name": "ERC20PaymentReleased",
      "type": "event"
    },
    {
      "anonymous": false,
      "inputs": [
        {
          "indexed": true,
          "internalType": "address",
          "name": "previousOwner",
          "type": "address"
        },
        {
          "indexed": true,
          "internalType": "address",
          "name": "newOwner",
          "type": "address"
        }
      ],
      "name": "OwnershipTransferred",
      "type": "event"
    },
    {
      "anonymous": false,
      "inputs": [
        {
          "indexed": false,
          "internalType": "address",
          "name": "account",
          "type": "address"
        },
        {
          "indexed": false,
          "internalType": "uint256",
          "name": "shares",
          "type": "uint256"
        }
      ],
      "name": "PayeeAdded",
      "type": "event"
    },
    {
      "anonymous": false,
      "inputs": [
        {
          "indexed": false,
          "internalType": "address",
          "name": "from",
          "type": "address"
        },
        {
          "indexed": false,
          "internalType": "uint256",
          "name": "amount",
          "type": "uint256"
        }
      ],
      "name": "PaymentReceived",
      "type": "event"
    },
    {
      "anonymous": false,
      "inputs": [
        {
          "indexed": false,
          "internalType": "address",
          "name": "to",
          "type": "address"
        },
        {
          "indexed": false,
          "internalType": "uint256",
          "name": "amount",
          "type": "uint256"
        }
      ],
      "name": "PaymentReleased",
      "type": "event"
    },
    {
      "anonymous": false,
      "inputs": [
        {
          "indexed": true,
          "internalType": "address",
          "name": "from",
          "type": "address"
        },
        {
          "indexed": true,
          "internalType": "address",
          "name": "to",
          "type": "address"
        },
        {
          "indexed": true,
          "internalType": "uint256",
          "name": "tokenId",
          "type": "uint256"
        }
      ],
      "name": "Transfer",
      "type": "event"
    },
    {
      "inputs": [],
      "name": "Author",
      "outputs": [
        {
          "internalType": "string",
          "name": "",
          "type": "string"
        }
      ],
      "stateMutability": "view",
      "type": "function"
    },
    {
      "inputs": [],
      "name": "MAX_TOKENS",
      "outputs": [
        {
          "internalType": "uint256",
          "name": "",
          "type": "uint256"
        }
      ],
      "stateMutability": "view",
      "type": "function"
    },
    {
      "inputs": [],
      "name": "ProjectTeam",
      "outputs": [
        {
          "internalType": "string",
          "name": "",
          "type": "string"
        }
      ],
      "stateMutability": "view",
      "type": "function"
    },
    {
      "inputs": [
        {
          "internalType": "address",
          "name": "to",
          "type": "address"
        },
        {
          "internalType": "uint256",
          "name": "tokenId",
          "type": "uint256"
        }
      ],
      "name": "approve",
      "outputs": [],
      "stateMutability": "nonpayable",
      "type": "function"
    },
    {
      "inputs": [
        {
          "internalType": "address",
          "name": "owner",
          "type": "address"
        }
      ],
      "name": "balanceOf",
      "outputs": [
        {
          "internalType": "uint256",
          "name": "",
          "type": "uint256"
        }
      ],
      "stateMutability": "view",
      "type": "function"
    },
    {
      "inputs": [],
      "name": "baseExtension",
      "outputs": [
        {
          "internalType": "string",
          "name": "",
          "type": "string"
        }
      ],
      "stateMutability": "view",
      "type": "function"
    },
    {
      "inputs": [
        {
          "internalType": "uint256",
          "name": "tokenId",
          "type": "uint256"
        }
      ],
      "name": "burn",
      "outputs": [],
      "stateMutability": "nonpayable",
      "type": "function"
    },
    {
      "inputs": [
        {
          "internalType": "uint256",
          "name": "tokenId",
          "type": "uint256"
        }
      ],
      "name": "getApproved",
      "outputs": [
        {
          "internalType": "address",
          "name": "",
          "type": "address"
        }
      ],
      "stateMutability": "view",
      "type": "function"
    },
    {
      "inputs": [],
      "name": "hiddenMetadataUri",
      "outputs": [
        {
          "internalType": "string",
          "name": "",
          "type": "string"
        }
      ],
      "stateMutability": "view",
      "type": "function"
    },
    {
      "inputs": [
        {
          "internalType": "address",
          "name": "owner",
          "type": "address"
        },
        {
          "internalType": "address",
          "name": "operator",
          "type": "address"
        }
      ],
      "name": "isApprovedForAll",
      "outputs": [
        {
          "internalType": "bool",
          "name": "",
          "type": "bool"
        }
      ],
      "stateMutability": "view",
      "type": "function"
    },
    {
      "inputs": [],
      "name": "maxWhitelistPassMints",
      "outputs": [
        {
          "internalType": "uint256",
          "name": "",
          "type": "uint256"
        }
      ],
      "stateMutability": "view",
      "type": "function"
    },
    {
      "inputs": [],
      "name": "name",
      "outputs": [
        {
          "internalType": "string",
          "name": "",
          "type": "string"
        }
      ],
      "stateMutability": "view",
      "type": "function"
    },
    {
      "inputs": [
        {
          "internalType": "uint256",
          "name": "quantity",
          "type": "uint256"
        }
      ],
      "name": "openMint",
      "outputs": [],
      "stateMutability": "payable",
      "type": "function"
    },
    {
      "inputs": [],
      "name": "owner",
      "outputs": [
        {
          "internalType": "address",
          "name": "",
          "type": "address"
        }
      ],
      "stateMutability": "view",
      "type": "function"
    },
    {
      "inputs": [
        {
          "internalType": "uint256",
          "name": "tokenId",
          "type": "uint256"
        }
      ],
      "name": "ownerOf",
      "outputs": [
        {
          "internalType": "address",
          "name": "",
          "type": "address"
        }
      ],
      "stateMutability": "view",
      "type": "function"
    },
    {
      "inputs": [
        {
          "internalType": "uint256",
          "name": "index",
          "type": "uint256"
        }
      ],
      "name": "payee",
      "outputs": [
        {
          "internalType": "address",
          "name": "",
          "type": "address"
        }
      ],
      "stateMutability": "view",
      "type": "function"
    },
    {
      "inputs": [],
      "name": "privateMintIsOpen",
      "outputs": [
        {
          "internalType": "bool",
          "name": "",
          "type": "bool"
        }
      ],
      "stateMutability": "view",
      "type": "function"
    },
    {
      "inputs": [],
      "name": "publicMintIsOpen",
      "outputs": [
        {
          "internalType": "bool",
          "name": "",
          "type": "bool"
        }
      ],
      "stateMutability": "view",
      "type": "function"
    },
    {
      "inputs": [],
      "name": "publicMintMaxLimit",
      "outputs": [
        {
          "internalType": "uint256",
          "name": "",
          "type": "uint256"
        }
      ],
      "stateMutability": "view",
      "type": "function"
    },
    {
      "inputs": [
        {
          "internalType": "address payable",
          "name": "account",
          "type": "address"
        }
      ],
      "name": "release",
      "outputs": [],
      "stateMutability": "nonpayable",
      "type": "function"
    },
    {
      "inputs": [
        {
          "internalType": "contract IERC20",
          "name": "token",
          "type": "address"
        },
        {
          "internalType": "address",
          "name": "account",
          "type": "address"
        }
      ],
      "name": "release",
      "outputs": [],
      "stateMutability": "nonpayable",
      "type": "function"
    },
    {
      "inputs": [
        {
          "internalType": "contract IERC20",
          "name": "token",
          "type": "address"
        },
        {
          "internalType": "address",
          "name": "account",
          "type": "address"
        }
      ],
      "name": "released",
      "outputs": [
        {
          "internalType": "uint256",
          "name": "",
          "type": "uint256"
        }
      ],
      "stateMutability": "view",
      "type": "function"
    },
    {
      "inputs": [
        {
          "internalType": "address",
          "name": "account",
          "type": "address"
        }
      ],
      "name": "released",
      "outputs": [
        {
          "internalType": "uint256",
          "name": "",
          "type": "uint256"
        }
      ],
      "stateMutability": "view",
      "type": "function"
    },
    {
      "inputs": [],
      "name": "renounceOwnership",
      "outputs": [],
      "stateMutability": "nonpayable",
      "type": "function"
    },
    {
      "inputs": [],
      "name": "revealed",
      "outputs": [
        {
          "internalType": "bool",
          "name": "",
          "type": "bool"
        }
      ],
      "stateMutability": "view",
      "type": "function"
    },
    {
      "inputs": [
        {
          "internalType": "address",
          "name": "from",
          "type": "address"
        },
        {
          "internalType": "address",
          "name": "to",
          "type": "address"
        },
        {
          "internalType": "uint256",
          "name": "tokenId",
          "type": "uint256"
        }
      ],
      "name": "safeTransferFrom",
      "outputs": [],
      "stateMutability": "nonpayable",
      "type": "function"
    },
    {
      "inputs": [
        {
          "internalType": "address",
          "name": "from",
          "type": "address"
        },
        {
          "internalType": "address",
          "name": "to",
          "type": "address"
        },
        {
          "internalType": "uint256",
          "name": "tokenId",
          "type": "uint256"
        },
        {
          "internalType": "bytes",
          "name": "_data",
          "type": "bytes"
        }
      ],
      "name": "safeTransferFrom",
      "outputs": [],
      "stateMutability": "nonpayable",
      "type": "function"
    },
    {
      "inputs": [
        {
          "internalType": "address",
          "name": "operator",
          "type": "address"
        },
        {
          "internalType": "bool",
          "name": "approved",
          "type": "bool"
        }
      ],
      "name": "setApprovalForAll",
      "outputs": [],
      "stateMutability": "nonpayable",
      "type": "function"
    },
    {
      "inputs": [
        {
          "internalType": "string",
          "name": "_baseExtension",
          "type": "string"
        }
      ],
      "name": "setBaseExtension",
      "outputs": [],
      "stateMutability": "nonpayable",
      "type": "function"
    },
    {
      "inputs": [
        {
          "internalType": "string",
          "name": "newBaseURI",
          "type": "string"
        }
      ],
      "name": "setBaseURI",
      "outputs": [],
      "stateMutability": "nonpayable",
      "type": "function"
    },
    {
      "inputs": [
        {
          "internalType": "uint256",
          "name": "amount",
          "type": "uint256"
        }
      ],
      "name": "setFreeMints",
      "outputs": [],
      "stateMutability": "nonpayable",
      "type": "function"
    },
    {
      "inputs": [
        {
          "internalType": "string",
          "name": "_hiddenMetadataUri",
          "type": "string"
        }
      ],
      "name": "setHiddenMetadataUri",
      "outputs": [],
      "stateMutability": "nonpayable",
      "type": "function"
    },
    {
      "inputs": [
        {
          "internalType": "uint256",
          "name": "newPrice",
          "type": "uint256"
        },
        {
          "internalType": "uint256",
          "name": "newWhitelistTokenPrice",
          "type": "uint256"
        },
        {
          "internalType": "uint256",
          "name": "setOpenMintLimit",
          "type": "uint256"
        },
        {
          "internalType": "uint256",
          "name": "setWhistlistPassMintLimit",
          "type": "uint256"
        },
        {
          "internalType": "bool",
          "name": "setPublicMintState",
          "type": "bool"
        },
        {
          "internalType": "bool",
          "name": "setPrivateMintState",
          "type": "bool"
        }
      ],
      "name": "setParams",
      "outputs": [],
      "stateMutability": "nonpayable",
      "type": "function"
    },
    {
      "inputs": [
        {
          "internalType": "bool",
          "name": "_state",
          "type": "bool"
        }
      ],
      "name": "setRevealed",
      "outputs": [],
      "stateMutability": "nonpayable",
      "type": "function"
    },
    {
      "inputs": [
        {
          "internalType": "address",
          "name": "newSigner",
          "type": "address"
        }
      ],
      "name": "setSignerAddress",
      "outputs": [],
      "stateMutability": "nonpayable",
      "type": "function"
    },
    {
      "inputs": [
        {
          "internalType": "uint256",
          "name": "newPrice",
          "type": "uint256"
        }
      ],
      "name": "setTokenPrice",
      "outputs": [],
      "stateMutability": "nonpayable",
      "type": "function"
    },
    {
      "inputs": [
        {
          "internalType": "uint256",
          "name": "newMintLimit",
          "type": "uint256"
        }
      ],
      "name": "setTransactionMintLimit",
      "outputs": [],
      "stateMutability": "nonpayable",
      "type": "function"
    },
    {
      "inputs": [
        {
          "internalType": "address",
          "name": "newVault",
          "type": "address"
        }
      ],
      "name": "setVaultAddress",
      "outputs": [],
      "stateMutability": "nonpayable",
      "type": "function"
    },
    {
      "inputs": [
        {
          "internalType": "uint256",
          "name": "newprivateMintLimit",
          "type": "uint256"
        }
      ],
      "name": "setWhitelistTransactionMintLimit",
      "outputs": [],
      "stateMutability": "nonpayable",
      "type": "function"
    },
    {
      "inputs": [
        {
          "internalType": "address",
          "name": "account",
          "type": "address"
        }
      ],
      "name": "shares",
      "outputs": [
        {
          "internalType": "uint256",
          "name": "",
          "type": "uint256"
        }
      ],
      "stateMutability": "view",
      "type": "function"
    },
    {
      "inputs": [
        {
          "internalType": "bytes4",
          "name": "interfaceId",
          "type": "bytes4"
        }
      ],
      "name": "supportsInterface",
      "outputs": [
        {
          "internalType": "bool",
          "name": "",
          "type": "bool"
        }
      ],
      "stateMutability": "view",
      "type": "function"
    },
    {
      "inputs": [],
      "name": "symbol",
      "outputs": [
        {
          "internalType": "string",
          "name": "",
          "type": "string"
        }
      ],
      "stateMutability": "view",
      "type": "function"
    },
    {
      "inputs": [
        {
          "internalType": "address",
          "name": "to",
          "type": "address"
        },
        {
          "internalType": "uint256",
          "name": "amount",
          "type": "uint256"
        }
      ],
      "name": "teamMint",
      "outputs": [],
      "stateMutability": "nonpayable",
      "type": "function"
    },
    {
      "inputs": [],
      "name": "togglePresaleMint",
      "outputs": [],
      "stateMutability": "nonpayable",
      "type": "function"
    },
    {
      "inputs": [],
      "name": "togglePublicMint",
      "outputs": [],
      "stateMutability": "nonpayable",
      "type": "function"
    },
    {
      "inputs": [],
      "name": "tokenPrice",
      "outputs": [
        {
          "internalType": "uint256",
          "name": "",
          "type": "uint256"
        }
      ],
      "stateMutability": "view",
      "type": "function"
    },
    {
      "inputs": [
        {
          "internalType": "uint256",
          "name": "_tokenId",
          "type": "uint256"
        }
      ],
      "name": "tokenURI",
      "outputs": [
        {
          "internalType": "string",
          "name": "",
          "type": "string"
        }
      ],
      "stateMutability": "view",
      "type": "function"
    },
    {
      "inputs": [
        {
          "internalType": "contract IERC20",
          "name": "token",
          "type": "address"
        }
      ],
      "name": "totalReleased",
      "outputs": [
        {
          "internalType": "uint256",
          "name": "",
          "type": "uint256"
        }
      ],
      "stateMutability": "view",
      "type": "function"
    },
    {
      "inputs": [],
      "name": "totalReleased",
      "outputs": [
        {
          "internalType": "uint256",
          "name": "",
          "type": "uint256"
        }
      ],
      "stateMutability": "view",
      "type": "function"
    },
    {
      "inputs": [],
      "name": "totalShares",
      "outputs": [
        {
          "internalType": "uint256",
          "name": "",
          "type": "uint256"
        }
      ],
      "stateMutability": "view",
      "type": "function"
    },
    {
      "inputs": [],
      "name": "totalSupply",
      "outputs": [
        {
          "internalType": "uint256",
          "name": "",
          "type": "uint256"
        }
      ],
      "stateMutability": "view",
      "type": "function"
    },
    {
      "inputs": [
        {
          "internalType": "address",
          "name": "from",
          "type": "address"
        },
        {
          "internalType": "address",
          "name": "to",
          "type": "address"
        },
        {
          "internalType": "uint256",
          "name": "tokenId",
          "type": "uint256"
        }
      ],
      "name": "transferFrom",
      "outputs": [],
      "stateMutability": "nonpayable",
      "type": "function"
    },
    {
      "inputs": [
        {
          "internalType": "address",
          "name": "newOwner",
          "type": "address"
        }
      ],
      "name": "transferOwnership",
      "outputs": [],
      "stateMutability": "nonpayable",
      "type": "function"
    },
    {
      "inputs": [
        {
          "internalType": "uint8",
          "name": "quantity",
          "type": "uint8"
        },
        {
          "internalType": "uint8",
          "name": "claimable",
          "type": "uint8"
        },
        {
          "components": [
            {
              "internalType": "bytes32",
              "name": "r",
              "type": "bytes32"
            },
            {
              "internalType": "bytes32",
              "name": "s",
              "type": "bytes32"
            },
            {
              "internalType": "uint8",
              "name": "v",
              "type": "uint8"
            }
          ],
          "internalType": "struct GenericNFTPumpContract.WhitelistClaimPass",
          "name": "whitelistClaimPass",
          "type": "tuple"
        }
      ],
      "name": "whitelistClaimMint",
      "outputs": [],
      "stateMutability": "payable",
      "type": "function"
    },
    {
      "inputs": [],
      "name": "whitelistMintMaxLimit",
      "outputs": [
        {
          "internalType": "uint256",
          "name": "",
          "type": "uint256"
        }
      ],
      "stateMutability": "view",
      "type": "function"
    },
    {
      "inputs": [],
      "name": "whitelistTokenPrice",
      "outputs": [
        {
          "internalType": "uint256",
          "name": "",
          "type": "uint256"
        }
      ],
      "stateMutability": "view",
      "type": "function"
    },
    {
      "inputs": [],
      "name": "withdraw",
      "outputs": [],
      "stateMutability": "nonpayable",
      "type": "function"
    },
    {
      "stateMutability": "payable",
      "type": "receive"
    }
  ],
  "bytecode": "0x603260118190556012556701f161421c8e000060135566c3663566a580006014556103846015556016805462ffffff191661010017905560c06040526005608081905264173539b7b760d91b60a09081526200005f9160189190620008ab565b50601a80546001600160a01b0319908116909155601b8054909116905560408051808201909152600c8082526b0e8cac6d0dee6d0d25ccae8d60a31b6020909201918252620000b191601d91620008ab565b50604080518082019091526008808252676e667470756d707360c01b6020909201918252620000e391601e91620008ab565b5060405162004c2838038062004c28833981016040819052620001069162000b5a565b8181898962000115336200031f565b81516200012a906001906020850190620008ab565b50805162000140906002906020840190620008ab565b5050508051825114620001b55760405162461bcd60e51b815260206004820152603260248201527f5061796d656e7453706c69747465723a2070617965657320616e6420736861726044820152710cae640d8cadccee8d040dad2e6dac2e8c6d60731b60648201526084015b60405180910390fd5b6000825111620002085760405162461bcd60e51b815260206004820152601a60248201527f5061796d656e7453706c69747465723a206e6f207061796565730000000000006044820152606401620001ac565b60005b825181101562000274576200025f8382815181106200022e576200022e62000c88565b60200260200101518383815181106200024b576200024b62000c88565b60200260200101516200036f60201b60201c565b806200026b8162000cb4565b9150506200020b565b5050601a80546001600160a01b03199081166001600160a01b038a811691909117909255601b805490911691881691909117905550620002c1600f6200055d602090811b620026ae17901c565b620002d8600f6200055d60201b620026ae1760201c565b620002e533600162000566565b8351620002fa906017906020870190620008ab565b50825162000310906019906020860190620008ab565b50505050505050505062000db3565b600080546001600160a01b038381166001600160a01b0319831681178455604051919092169283917f8be0079c531659141344cd1fd0a4f28419497f9722a3daafe3b4186f6b6457e09190a35050565b6001600160a01b038216620003dc5760405162461bcd60e51b815260206004820152602c60248201527f5061796d656e7453706c69747465723a206163636f756e74206973207468652060448201526b7a65726f206164647265737360a01b6064820152608401620001ac565b600081116200042e5760405162461bcd60e51b815260206004820152601d60248201527f5061796d656e7453706c69747465723a207368617265732061726520300000006044820152606401620001ac565b6001600160a01b0382166000908152600a602052604090205415620004aa5760405162461bcd60e51b815260206004820152602b60248201527f5061796d656e7453706c69747465723a206163636f756e7420616c726561647960448201526a206861732073686172657360a81b6064820152608401620001ac565b600c8054600181019091557fdf6966c971051c3d54ec59162606531493a51404a002842f56009d7e5cf4a8c70180546001600160a01b0319166001600160a01b0384169081179091556000908152600a602052604090208190556008546200051490829062000cd2565b600855604080516001600160a01b0384168152602081018390527f40c340f65e17194d14ddddb073d3c9f888e3cb52b5aae0c6c7706b4fbc905fac910160405180910390a15050565b80546001019055565b620005888282604051806020016040528060008152506200058c60201b60201c565b5050565b62000598838362000604565b620005a760008484846200074c565b620005ff5760405162461bcd60e51b8152602060048201526032602482015260008051602062004c0883398151915260448201527131b2b4bb32b91034b6b83632b6b2b73a32b960711b6064820152608401620001ac565b505050565b6001600160a01b0382166200065c5760405162461bcd60e51b815260206004820181905260248201527f4552433732313a206d696e7420746f20746865207a65726f20616464726573736044820152606401620001ac565b6000818152600360205260409020546001600160a01b031615620006c35760405162461bcd60e51b815260206004820152601c60248201527f4552433732313a20746f6b656e20616c7265616479206d696e746564000000006044820152606401620001ac565b6001600160a01b0382166000908152600460205260408120805460019290620006ee90849062000cd2565b909155505060008181526003602052604080822080546001600160a01b0319166001600160a01b03861690811790915590518392907fddf252ad1be2c89b69c2b068fc378daa952ba7f163c4a11628f55a4df523b3ef908290a45050565b60006200076d846001600160a01b0316620008a560201b620026b71760201c565b156200089957604051630a85bd0160e11b81526001600160a01b0385169063150b7a0290620007a790339089908890889060040162000ced565b6020604051808303816000875af1925050508015620007e5575060408051601f3d908101601f19168201909252620007e29181019062000d43565b60015b6200087e573d80801562000816576040519150601f19603f3d011682016040523d82523d6000602084013e6200081b565b606091505b508051620008765760405162461bcd60e51b8152602060048201526032602482015260008051602062004c0883398151915260448201527131b2b4bb32b91034b6b83632b6b2b73a32b960711b6064820152608401620001ac565b805181602001fd5b6001600160e01b031916630a85bd0160e11b1490506200089d565b5060015b949350505050565b3b151590565b828054620008b99062000d76565b90600052602060002090601f016020900481019282620008dd576000855562000928565b82601f10620008f857805160ff191683800117855562000928565b8280016001018555821562000928579182015b82811115620009285782518255916020019190600101906200090b565b50620009369291506200093a565b5090565b5b808211156200093657600081556001016200093b565b634e487b7160e01b600052604160045260246000fd5b604051601f8201601f191681016001600160401b038111828210171562000992576200099262000951565b604052919050565b60005b83811015620009b75781810151838201526020016200099d565b83811115620009c7576000848401525b50505050565b600082601f830112620009df57600080fd5b81516001600160401b03811115620009fb57620009fb62000951565b62000a10601f8201601f191660200162000967565b81815284602083860101111562000a2657600080fd5b6200089d8260208301602087016200099a565b80516001600160a01b038116811462000a5157600080fd5b919050565b60006001600160401b0382111562000a725762000a7262000951565b5060051b60200190565b600082601f83011262000a8e57600080fd5b8151602062000aa762000aa18362000a56565b62000967565b82815260059290921b8401810191818101908684111562000ac757600080fd5b8286015b8481101562000aed5762000adf8162000a39565b835291830191830162000acb565b509695505050505050565b600082601f83011262000b0a57600080fd5b8151602062000b1d62000aa18362000a56565b82815260059290921b8401810191818101908684111562000b3d57600080fd5b8286015b8481101562000aed578051835291830191830162000b41565b600080600080600080600080610100898b03121562000b7857600080fd5b88516001600160401b038082111562000b9057600080fd5b62000b9e8c838d01620009cd565b995060208b015191508082111562000bb557600080fd5b62000bc38c838d01620009cd565b985062000bd360408c0162000a39565b975062000be360608c0162000a39565b965060808b015191508082111562000bfa57600080fd5b62000c088c838d01620009cd565b955060a08b015191508082111562000c1f57600080fd5b62000c2d8c838d01620009cd565b945060c08b015191508082111562000c4457600080fd5b62000c528c838d0162000a7c565b935060e08b015191508082111562000c6957600080fd5b5062000c788b828c0162000af8565b9150509295985092959890939650565b634e487b7160e01b600052603260045260246000fd5b634e487b7160e01b600052601160045260246000fd5b600060001982141562000ccb5762000ccb62000c9e565b5060010190565b6000821982111562000ce85762000ce862000c9e565b500190565b600060018060a01b03808716835280861660208401525083604083015260806060830152825180608084015262000d2c8160a08501602087016200099a565b601f01601f19169190910160a00195945050505050565b60006020828403121562000d5657600080fd5b81516001600160e01b03198116811462000d6f57600080fd5b9392505050565b600181811c9082168062000d8b57607f821691505b6020821081141562000dad57634e487b7160e01b600052602260045260246000fd5b50919050565b613e458062000dc36000396000f3fe60806040526004361061037a5760003560e01c80637ff9b596116101d1578063ce7c2ac211610102578063e7db8fb0116100a0578063f2fde38b1161006f578063f2fde38b14610a69578063f47c84c514610a89578063fa468ead14610a9f578063fe471ed514610ab557600080fd5b8063e7db8fb0146109cc578063e985e9c5146109ec578063ed4dcde614610a35578063ee28de5214610a4a57600080fd5b8063da3ef23f116100dc578063da3ef23f14610961578063e0a8085314610981578063e33b7de3146109a1578063e4a42551146109b657600080fd5b8063ce7c2ac2146108df578063d25f404714610915578063d79779b21461092b57600080fd5b8063a15d60c51161016f578063add5a4fa11610149578063add5a4fa1461086a578063b88d4fde1461088a578063c6682862146108aa578063c87b56dd146108bf57600080fd5b8063a15d60c51461081b578063a22cb46514610835578063a45ba8e71461085557600080fd5b80638da5cb5b116101ab5780638da5cb5b1461079f57806395d89b41146107bd5780639852595c146107d2578063a02d1d5a1461080857600080fd5b80637ff9b5961461074957806385535cc51461075f5780638b83209b1461077f57600080fd5b80633ccfd60b116102ab5780634fdd43cb116102495780636352211e116102235780636352211e146106d45780636a61e5fc146106f457806370a0823114610714578063715018a61461073457600080fd5b80634fdd43cb14610674578063518302271461069457806355f804b3146106b457600080fd5b806342842e0e1161028557806342842e0e146106015780634287084f1461062157806342966c681461063457806348b750441461065457600080fd5b80633ccfd60b146105915780634047638d146105a6578063406072a9146105bb57600080fd5b806318160ddd1161031857806323b872dd116102f257806323b872dd146105315780632cb15fd314610551578063353f849e146105675780633a98ef391461057c57600080fd5b806318160ddd146104d957806319165587146104fc57806320b2af521461051c57600080fd5b8063081812fc11610354578063081812fc14610441578063095ea7b3146104795780630d738aeb146104995780630f1e6828146104b957600080fd5b806301ffc9a7146103c8578063046dc166146103fd57806306fdde031461041f57600080fd5b366103c3577f6ef95f06320e7a25a04a175ca677b7052bdd97131872c2192525a629f51be77033604080516001600160a01b0390921682523460208301520160405180910390a1005b600080fd5b3480156103d457600080fd5b506103e86103e3366004613744565b610ad5565b60405190151581526020015b60405180910390f35b34801561040957600080fd5b5061041d610418366004613776565b610bba565b005b34801561042b57600080fd5b50610434610c48565b6040516103f491906137eb565b34801561044d57600080fd5b5061046161045c3660046137fe565b610cda565b6040516001600160a01b0390911681526020016103f4565b34801561048557600080fd5b5061041d610494366004613817565b610d80565b3480156104a557600080fd5b5061041d6104b43660046137fe565b610eb2565b3480156104c557600080fd5b5061041d6104d43660046137fe565b610f11565b3480156104e557600080fd5b506104ee610f70565b6040519081526020016103f4565b34801561050857600080fd5b5061041d610517366004613776565b610f8c565b34801561052857600080fd5b50610434611166565b34801561053d57600080fd5b5061041d61054c366004613843565b6111f4565b34801561055d57600080fd5b506104ee60155481565b34801561057357600080fd5b5061043461127b565b34801561058857600080fd5b506008546104ee565b34801561059d57600080fd5b5061041d611288565b3480156105b257600080fd5b5061041d61131e565b3480156105c757600080fd5b506104ee6105d6366004613884565b6001600160a01b039182166000908152600e6020908152604080832093909416825291909152205490565b34801561060d57600080fd5b5061041d61061c366004613843565b61138c565b61041d61062f3660046137fe565b6113a7565b34801561064057600080fd5b5061041d61064f3660046137fe565b61155f565b34801561066057600080fd5b5061041d61066f366004613884565b6115c2565b34801561068057600080fd5b5061041d61068f366004613949565b611860565b3480156106a057600080fd5b506016546103e89062010000900460ff1681565b3480156106c057600080fd5b5061041d6106cf366004613949565b6118d1565b3480156106e057600080fd5b506104616106ef3660046137fe565b61193e565b34801561070057600080fd5b5061041d61070f3660046137fe565b6119c9565b34801561072057600080fd5b506104ee61072f366004613776565b611a28565b34801561074057600080fd5b5061041d611ac2565b34801561075557600080fd5b506104ee60135481565b34801561076b57600080fd5b5061041d61077a366004613776565b611b28565b34801561078b57600080fd5b5061046161079a3660046137fe565b611bb1565b3480156107ab57600080fd5b506000546001600160a01b0316610461565b3480156107c957600080fd5b50610434611be1565b3480156107de57600080fd5b506104ee6107ed366004613776565b6001600160a01b03166000908152600b602052604090205490565b61041d6108163660046139a8565b611bf0565b34801561082757600080fd5b506016546103e89060ff1681565b34801561084157600080fd5b5061041d610850366004613a69565b611fb0565b34801561086157600080fd5b50610434611fbb565b34801561087657600080fd5b5061041d610885366004613817565b611fc8565b34801561089657600080fd5b5061041d6108a5366004613a97565b6120d5565b3480156108b657600080fd5b5061043461215d565b3480156108cb57600080fd5b506104346108da3660046137fe565b61216a565b3480156108eb57600080fd5b506104ee6108fa366004613776565b6001600160a01b03166000908152600a602052604090205490565b34801561092157600080fd5b506104ee60115481565b34801561093757600080fd5b506104ee610946366004613776565b6001600160a01b03166000908152600d602052604090205490565b34801561096d57600080fd5b5061041d61097c366004613949565b6122f8565b34801561098d57600080fd5b5061041d61099c366004613b17565b612365565b3480156109ad57600080fd5b506009546104ee565b3480156109c257600080fd5b506104ee60125481565b3480156109d857600080fd5b5061041d6109e73660046137fe565b6123f7565b3480156109f857600080fd5b506103e8610a07366004613884565b6001600160a01b03918216600090815260066020908152604080832093909416825291909152205460ff1690565b348015610a4157600080fd5b5061041d6124a8565b348015610a5657600080fd5b506016546103e890610100900460ff1681565b348015610a7557600080fd5b5061041d610a84366004613776565b61251f565b348015610a9557600080fd5b506104ee610c1c81565b348015610aab57600080fd5b506104ee60145481565b348015610ac157600080fd5b5061041d610ad0366004613b34565b6125fe565b60007fffffffff0000000000000000000000000000000000000000000000000000000082167f80ac58cd000000000000000000000000000000000000000000000000000000001480610b6857507fffffffff0000000000000000000000000000000000000000000000000000000082167f5b5e139f00000000000000000000000000000000000000000000000000000000145b80610bb457507f01ffc9a7000000000000000000000000000000000000000000000000000000007fffffffff000000000000000000000000000000000000000000000000000000008316145b92915050565b6000546001600160a01b03163314610c195760405162461bcd60e51b815260206004820181905260248201527f4f776e61626c653a2063616c6c6572206973206e6f7420746865206f776e657260448201526064015b60405180910390fd5b601b805473ffffffffffffffffffffffffffffffffffffffff19166001600160a01b0392909216919091179055565b606060018054610c5790613b92565b80601f0160208091040260200160405190810160405280929190818152602001828054610c8390613b92565b8015610cd05780601f10610ca557610100808354040283529160200191610cd0565b820191906000526020600020905b815481529060010190602001808311610cb357829003601f168201915b5050505050905090565b6000818152600360205260408120546001600160a01b0316610d645760405162461bcd60e51b815260206004820152602c60248201527f4552433732313a20617070726f76656420717565727920666f72206e6f6e657860448201527f697374656e7420746f6b656e00000000000000000000000000000000000000006064820152608401610c10565b506000908152600560205260409020546001600160a01b031690565b6000610d8b8261193e565b9050806001600160a01b0316836001600160a01b03161415610e155760405162461bcd60e51b815260206004820152602160248201527f4552433732313a20617070726f76616c20746f2063757272656e74206f776e6560448201527f72000000000000000000000000000000000000000000000000000000000000006064820152608401610c10565b336001600160a01b0382161480610e315750610e318133610a07565b610ea35760405162461bcd60e51b815260206004820152603860248201527f4552433732313a20617070726f76652063616c6c6572206973206e6f74206f7760448201527f6e6572206e6f7220617070726f76656420666f7220616c6c00000000000000006064820152608401610c10565b610ead83836126bd565b505050565b6000546001600160a01b03163314610f0c5760405162461bcd60e51b815260206004820181905260248201527f4f776e61626c653a2063616c6c6572206973206e6f7420746865206f776e65726044820152606401610c10565b601255565b6000546001600160a01b03163314610f6b5760405162461bcd60e51b815260206004820181905260248201527f4f776e61626c653a2063616c6c6572206973206e6f7420746865206f776e65726044820152606401610c10565b601155565b60006001610f7d600f5490565b610f879190613be3565b905090565b6001600160a01b0381166000908152600a60205260409020546110175760405162461bcd60e51b815260206004820152602660248201527f5061796d656e7453706c69747465723a206163636f756e7420686173206e6f2060448201527f73686172657300000000000000000000000000000000000000000000000000006064820152608401610c10565b600061102260095490565b61102c9047613bfa565b905060006110598383611054866001600160a01b03166000908152600b602052604090205490565b612738565b9050806110ce5760405162461bcd60e51b815260206004820152602b60248201527f5061796d656e7453706c69747465723a206163636f756e74206973206e6f742060448201527f647565207061796d656e740000000000000000000000000000000000000000006064820152608401610c10565b6001600160a01b0383166000908152600b6020526040812080548392906110f6908490613bfa565b92505081905550806009600082825461110f9190613bfa565b9091555061111f9050838261277e565b604080516001600160a01b0385168152602081018390527fdf20fd1e76bc69d672e4814fafb2c449bba3a5369d8359adf9e05e6fde87b056910160405180910390a1505050565b601d805461117390613b92565b80601f016020809104026020016040519081016040528092919081815260200182805461119f90613b92565b80156111ec5780601f106111c1576101008083540402835291602001916111ec565b820191906000526020600020905b8154815290600101906020018083116111cf57829003601f168201915b505050505081565b6111fe3382612897565b6112705760405162461bcd60e51b815260206004820152603160248201527f4552433732313a207472616e736665722063616c6c6572206973206e6f74206f60448201527f776e6572206e6f7220617070726f7665640000000000000000000000000000006064820152608401610c10565b610ead83838361299e565b601e805461117390613b92565b6000546001600160a01b031633146112e25760405162461bcd60e51b815260206004820181905260248201527f4f776e61626c653a2063616c6c6572206973206e6f7420746865206f776e65726044820152606401610c10565b601a546040516001600160a01b03909116904780156108fc02916000818181858888f1935050505015801561131b573d6000803e3d6000fd5b50565b6000546001600160a01b031633146113785760405162461bcd60e51b815260206004820181905260248201527f4f776e61626c653a2063616c6c6572206973206e6f7420746865206f776e65726044820152606401610c10565b6016805460ff19811660ff90911615179055565b610ead838383604051806020016040528060008152506120d5565b34816013546113b69190613c12565b11156114045760405162461bcd60e51b815260206004820152601560248201527f4e6f7420656e6f7567682065746865722073656e7400000000000000000000006044820152606401610c10565b600061140f600f5490565b60165490915060ff1615156001146114695760405162461bcd60e51b815260206004820152601260248201527f5075626c6963204d696e7420436c6f73656400000000000000000000000000006044820152606401610c10565b6011548211156114bb5760405162461bcd60e51b815260206004820152601560248201527f4d696e7420616d6f756e7420746f6f206c6172676500000000000000000000006044820152606401610c10565b610c1c6114c9600183613be3565b6114d39084613bfa565b11156115215760405162461bcd60e51b815260206004820152601b60248201527f4e6f7420656e6f75676820746f6b656e732072656d61696e696e6700000000006044820152606401610c10565b60005b82811015610ead5761153a600f80546001019055565b61154d336115488385613bfa565b612b78565b8061155781613c31565b915050611524565b6000546001600160a01b031633146115b95760405162461bcd60e51b815260206004820181905260248201527f4f776e61626c653a2063616c6c6572206973206e6f7420746865206f776e65726044820152606401610c10565b61131b81612b92565b6001600160a01b0381166000908152600a602052604090205461164d5760405162461bcd60e51b815260206004820152602660248201527f5061796d656e7453706c69747465723a206163636f756e7420686173206e6f2060448201527f73686172657300000000000000000000000000000000000000000000000000006064820152608401610c10565b6001600160a01b0382166000908152600d60205260408120546040517f70a082310000000000000000000000000000000000000000000000000000000081523060048201526001600160a01b038516906370a0823190602401602060405180830381865afa1580156116c3573d6000803e3d6000fd5b505050506040513d601f19601f820116820180604052508101906116e79190613c4c565b6116f19190613bfa565b9050600061172a838361105487876001600160a01b039182166000908152600e6020908152604080832093909416825291909152205490565b90508061179f5760405162461bcd60e51b815260206004820152602b60248201527f5061796d656e7453706c69747465723a206163636f756e74206973206e6f742060448201527f647565207061796d656e740000000000000000000000000000000000000000006064820152608401610c10565b6001600160a01b038085166000908152600e60209081526040808320938716835292905290812080548392906117d6908490613bfa565b90915550506001600160a01b0384166000908152600d602052604081208054839290611803908490613bfa565b909155506118149050848483612b9b565b604080516001600160a01b038581168252602082018490528616917f3be5b7a71e84ed12875d241991c70855ac5817d847039e17a9d895c1ceb0f18a910160405180910390a250505050565b6000546001600160a01b031633146118ba5760405162461bcd60e51b815260206004820181905260248201527f4f776e61626c653a2063616c6c6572206973206e6f7420746865206f776e65726044820152606401610c10565b80516118cd906019906020840190613647565b5050565b6000546001600160a01b0316331461192b5760405162461bcd60e51b815260206004820181905260248201527f4f776e61626c653a2063616c6c6572206973206e6f7420746865206f776e65726044820152606401610c10565b80516118cd906017906020840190613647565b6000818152600360205260408120546001600160a01b031680610bb45760405162461bcd60e51b815260206004820152602960248201527f4552433732313a206f776e657220717565727920666f72206e6f6e657869737460448201527f656e7420746f6b656e00000000000000000000000000000000000000000000006064820152608401610c10565b6000546001600160a01b03163314611a235760405162461bcd60e51b815260206004820181905260248201527f4f776e61626c653a2063616c6c6572206973206e6f7420746865206f776e65726044820152606401610c10565b601355565b60006001600160a01b038216611aa65760405162461bcd60e51b815260206004820152602a60248201527f4552433732313a2062616c616e636520717565727920666f7220746865207a6560448201527f726f2061646472657373000000000000000000000000000000000000000000006064820152608401610c10565b506001600160a01b031660009081526004602052604090205490565b6000546001600160a01b03163314611b1c5760405162461bcd60e51b815260206004820181905260248201527f4f776e61626c653a2063616c6c6572206973206e6f7420746865206f776e65726044820152606401610c10565b611b266000612c1b565b565b6000546001600160a01b03163314611b825760405162461bcd60e51b815260206004820181905260248201527f4f776e61626c653a2063616c6c6572206973206e6f7420746865206f776e65726044820152606401610c10565b601a805473ffffffffffffffffffffffffffffffffffffffff19166001600160a01b0392909216919091179055565b6000600c8281548110611bc657611bc6613c65565b6000918252602090912001546001600160a01b031692915050565b606060028054610c5790613b92565b6040805160ff841660208083019190915233828401528251808303840181526060909201909252805191012082908290611c2a8183612c78565b611c765760405162461bcd60e51b815260206004820152600c60248201527f496e76616c6964205061737300000000000000000000000000000000000000006044820152606401610c10565b348660ff16601454611c889190613c12565b1115611cd65760405162461bcd60e51b815260206004820152601560248201527f4e6f7420656e6f7567682065746865722073656e7400000000000000000000006044820152606401610c10565b6000611ce1600f5490565b60165490915060ff610100909104161515600114611d415760405162461bcd60e51b815260206004820152601160248201527f436c61696d204d696e7420436c6f7365640000000000000000000000000000006044820152606401610c10565b610c1c611d4f600183613be3565b611d5c9060ff8a16613bfa565b1115611daa5760405162461bcd60e51b815260206004820152601b60248201527f4e6f7420656e6f75676820746f6b656e732072656d61696e696e6700000000006044820152606401610c10565b8560ff168760ff161115611e265760405162461bcd60e51b815260206004820152602d60248201527f4d696e74207175616e746974792063616e27742062652067726561746572207460448201527f68616e20636c61696d61626c65000000000000000000000000000000000000006064820152608401610c10565b60008760ff1611611e9f5760405162461bcd60e51b815260206004820152602760248201527f4d696e74207175616e74697479206d757374206265206772656174657220746860448201527f616e207a65726f000000000000000000000000000000000000000000000000006064820152608401610c10565b6012548760ff161115611ef45760405162461bcd60e51b815260206004820152601760248201527f4d696e74207175616e7469747920746f6f206c617267650000000000000000006044820152606401610c10565b6015548760ff16611f0460105490565b611f0e9190613bfa565b1115611f5c5760405162461bcd60e51b815260206004820152601f60248201527f4e6f7420656e6f7567682066726565206d696e74732072656d61696e696e67006044820152606401610c10565b60005b8760ff16811015611fa657611f78600f80546001019055565b611f86601080546001019055565b611f94336115488385613bfa565b80611f9e81613c31565b915050611f5f565b5050505050505050565b6118cd338383612d60565b6019805461117390613b92565b6000546001600160a01b031633146120225760405162461bcd60e51b815260206004820181905260248201527f4f776e61626c653a2063616c6c6572206973206e6f7420746865206f776e65726044820152606401610c10565b600061202d600f5490565b9050610c1c8261203e600184613be3565b6120489190613bfa565b11156120965760405162461bcd60e51b815260206004820152601b60248201527f4e6f7420656e6f75676820746f6b656e732072656d61696e696e6700000000006044820152606401610c10565b60005b828110156120cf576120af600f80546001019055565b6120bd846115488385613bfa565b806120c781613c31565b915050612099565b50505050565b6120df3383612897565b6121515760405162461bcd60e51b815260206004820152603160248201527f4552433732313a207472616e736665722063616c6c6572206973206e6f74206f60448201527f776e6572206e6f7220617070726f7665640000000000000000000000000000006064820152608401610c10565b6120cf84848484612e2f565b6018805461117390613b92565b6000818152600360205260409020546060906001600160a01b03166121f75760405162461bcd60e51b815260206004820152602f60248201527f4552433732314d657461646174613a2055524920717565727920666f72206e6f60448201527f6e6578697374656e7420746f6b656e00000000000000000000000000000000006064820152608401610c10565b60165462010000900460ff16612299576019805461221490613b92565b80601f016020809104026020016040519081016040528092919081815260200182805461224090613b92565b801561228d5780601f106122625761010080835404028352916020019161228d565b820191906000526020600020905b81548152906001019060200180831161227057829003601f168201915b50505050509050919050565b60006122a3612eb8565b905060008151116122c357604051806020016040528060008152506122f1565b806122cd84612ec7565b60186040516020016122e193929190613c7b565b6040516020818303038152906040525b9392505050565b6000546001600160a01b031633146123525760405162461bcd60e51b815260206004820181905260248201527f4f776e61626c653a2063616c6c6572206973206e6f7420746865206f776e65726044820152606401610c10565b80516118cd906018906020840190613647565b6000546001600160a01b031633146123bf5760405162461bcd60e51b815260206004820181905260248201527f4f776e61626c653a2063616c6c6572206973206e6f7420746865206f776e65726044820152606401610c10565b6016805491151562010000027fffffffffffffffffffffffffffffffffffffffffffffffffffffffffff00ffff909216919091179055565b6000546001600160a01b031633146124515760405162461bcd60e51b815260206004820181905260248201527f4f776e61626c653a2063616c6c6572206973206e6f7420746865206f776e65726044820152606401610c10565b610c1c8111156124a35760405162461bcd60e51b815260206004820152601a60248201527f46726565206d696e7420616d6f756e7420746f6f206c617267650000000000006044820152606401610c10565b601555565b6000546001600160a01b031633146125025760405162461bcd60e51b815260206004820181905260248201527f4f776e61626c653a2063616c6c6572206973206e6f7420746865206f776e65726044820152606401610c10565b6016805461ff001981166101009182900460ff1615909102179055565b6000546001600160a01b031633146125795760405162461bcd60e51b815260206004820181905260248201527f4f776e61626c653a2063616c6c6572206973206e6f7420746865206f776e65726044820152606401610c10565b6001600160a01b0381166125f55760405162461bcd60e51b815260206004820152602660248201527f4f776e61626c653a206e6577206f776e657220697320746865207a65726f206160448201527f64647265737300000000000000000000000000000000000000000000000000006064820152608401610c10565b61131b81612c1b565b6000546001600160a01b031633146126585760405162461bcd60e51b815260206004820181905260248201527f4f776e61626c653a2063616c6c6572206973206e6f7420746865206f776e65726044820152606401610c10565b601494909455601394909455601191909155601255601680547fffffffffffffffffffffffffffffffffffffffffffffffffffffffffffff00001692151561ff0019169290921761010091151591909102179055565b80546001019055565b3b151590565b6000818152600560205260409020805473ffffffffffffffffffffffffffffffffffffffff19166001600160a01b03841690811790915581906126ff8261193e565b6001600160a01b03167f8c5be1e5ebec7d5bd14f71427d1e84f3dd0314c0f7b2291e5b200ac8c7c3b92560405160405180910390a45050565b6008546001600160a01b0384166000908152600a6020526040812054909183916127629086613c12565b61276c9190613d55565b6127769190613be3565b949350505050565b804710156127ce5760405162461bcd60e51b815260206004820152601d60248201527f416464726573733a20696e73756666696369656e742062616c616e63650000006044820152606401610c10565b6000826001600160a01b03168260405160006040518083038185875af1925050503d806000811461281b576040519150601f19603f3d011682016040523d82523d6000602084013e612820565b606091505b5050905080610ead5760405162461bcd60e51b815260206004820152603a60248201527f416464726573733a20756e61626c6520746f2073656e642076616c75652c207260448201527f6563697069656e74206d617920686176652072657665727465640000000000006064820152608401610c10565b6000818152600360205260408120546001600160a01b03166129215760405162461bcd60e51b815260206004820152602c60248201527f4552433732313a206f70657261746f7220717565727920666f72206e6f6e657860448201527f697374656e7420746f6b656e00000000000000000000000000000000000000006064820152608401610c10565b600061292c8361193e565b9050806001600160a01b0316846001600160a01b031614806129675750836001600160a01b031661295c84610cda565b6001600160a01b0316145b8061277657506001600160a01b0380821660009081526006602090815260408083209388168352929052205460ff16949350505050565b826001600160a01b03166129b18261193e565b6001600160a01b031614612a2d5760405162461bcd60e51b815260206004820152602960248201527f4552433732313a207472616e73666572206f6620746f6b656e2074686174206960448201527f73206e6f74206f776e00000000000000000000000000000000000000000000006064820152608401610c10565b6001600160a01b038216612aa85760405162461bcd60e51b8152602060048201526024808201527f4552433732313a207472616e7366657220746f20746865207a65726f2061646460448201527f72657373000000000000000000000000000000000000000000000000000000006064820152608401610c10565b612ab36000826126bd565b6001600160a01b0383166000908152600460205260408120805460019290612adc908490613be3565b90915550506001600160a01b0382166000908152600460205260408120805460019290612b0a908490613bfa565b9091555050600081815260036020526040808220805473ffffffffffffffffffffffffffffffffffffffff19166001600160a01b0386811691821790925591518493918716917fddf252ad1be2c89b69c2b068fc378daa952ba7f163c4a11628f55a4df523b3ef91a4505050565b6118cd828260405180602001604052806000815250612ff9565b61131b81613082565b604080516001600160a01b038416602482015260448082018490528251808303909101815260649091019091526020810180517bffffffffffffffffffffffffffffffffffffffffffffffffffffffff167fa9059cbb00000000000000000000000000000000000000000000000000000000179052610ead9084906130c2565b600080546001600160a01b0383811673ffffffffffffffffffffffffffffffffffffffff19831681178455604051919092169283917f8be0079c531659141344cd1fd0a4f28419497f9722a3daafe3b4186f6b6457e09190a35050565b60008060018484604001518560000151866020015160405160008152602001604052604051612cc3949392919093845260ff9290921660208401526040830152606082015260800190565b6020604051602081039080840390855afa158015612ce5573d6000803e3d6000fd5b5050604051601f1901519150506001600160a01b038116612d485760405162461bcd60e51b815260206004820152601860248201527f45434453413a20696e76616c6964207369676e617475726500000000000000006044820152606401610c10565b601b546001600160a01b039081169116149392505050565b816001600160a01b0316836001600160a01b03161415612dc25760405162461bcd60e51b815260206004820152601960248201527f4552433732313a20617070726f766520746f2063616c6c6572000000000000006044820152606401610c10565b6001600160a01b03838116600081815260066020908152604080832094871680845294825291829020805460ff191686151590811790915591519182527f17307eab39ab6107e8899845ad3d59bd9653f200f220920489ca2b5937696c31910160405180910390a3505050565b612e3a84848461299e565b612e46848484846131a7565b6120cf5760405162461bcd60e51b815260206004820152603260248201527f4552433732313a207472616e7366657220746f206e6f6e20455243373231526560448201527f63656976657220696d706c656d656e74657200000000000000000000000000006064820152608401610c10565b606060178054610c5790613b92565b606081612f0757505060408051808201909152600181527f3000000000000000000000000000000000000000000000000000000000000000602082015290565b8160005b8115612f315780612f1b81613c31565b9150612f2a9050600a83613d55565b9150612f0b565b60008167ffffffffffffffff811115612f4c57612f4c6138bd565b6040519080825280601f01601f191660200182016040528015612f76576020820181803683370190505b5090505b841561277657612f8b600183613be3565b9150612f98600a86613d69565b612fa3906030613bfa565b60f81b818381518110612fb857612fb8613c65565b60200101907effffffffffffffffffffffffffffffffffffffffffffffffffffffffffffff1916908160001a905350612ff2600a86613d55565b9450612f7a565b6130038383613345565b61301060008484846131a7565b610ead5760405162461bcd60e51b815260206004820152603260248201527f4552433732313a207472616e7366657220746f206e6f6e20455243373231526560448201527f63656976657220696d706c656d656e74657200000000000000000000000000006064820152608401610c10565b61308b81613494565b600081815260076020526040902080546130a490613b92565b15905061131b57600081815260076020526040812061131b916136cb565b6000613117826040518060400160405280602081526020017f5361666545524332303a206c6f772d6c6576656c2063616c6c206661696c6564815250856001600160a01b031661353c9092919063ffffffff16565b805190915015610ead57808060200190518101906131359190613d7d565b610ead5760405162461bcd60e51b815260206004820152602a60248201527f5361666545524332303a204552433230206f7065726174696f6e20646964206e60448201527f6f742073756363656564000000000000000000000000000000000000000000006064820152608401610c10565b60006001600160a01b0384163b1561333a576040517f150b7a020000000000000000000000000000000000000000000000000000000081526001600160a01b0385169063150b7a0290613204903390899088908890600401613d9a565b6020604051808303816000875af192505050801561323f575060408051601f3d908101601f1916820190925261323c91810190613dd6565b60015b6132ef573d80801561326d576040519150601f19603f3d011682016040523d82523d6000602084013e613272565b606091505b5080516132e75760405162461bcd60e51b815260206004820152603260248201527f4552433732313a207472616e7366657220746f206e6f6e20455243373231526560448201527f63656976657220696d706c656d656e74657200000000000000000000000000006064820152608401610c10565b805181602001fd5b7fffffffff00000000000000000000000000000000000000000000000000000000167f150b7a0200000000000000000000000000000000000000000000000000000000149050612776565b506001949350505050565b6001600160a01b03821661339b5760405162461bcd60e51b815260206004820181905260248201527f4552433732313a206d696e7420746f20746865207a65726f20616464726573736044820152606401610c10565b6000818152600360205260409020546001600160a01b0316156134005760405162461bcd60e51b815260206004820152601c60248201527f4552433732313a20746f6b656e20616c7265616479206d696e746564000000006044820152606401610c10565b6001600160a01b0382166000908152600460205260408120805460019290613429908490613bfa565b9091555050600081815260036020526040808220805473ffffffffffffffffffffffffffffffffffffffff19166001600160a01b03861690811790915590518392907fddf252ad1be2c89b69c2b068fc378daa952ba7f163c4a11628f55a4df523b3ef908290a45050565b600061349f8261193e565b90506134ac6000836126bd565b6001600160a01b03811660009081526004602052604081208054600192906134d5908490613be3565b9091555050600082815260036020526040808220805473ffffffffffffffffffffffffffffffffffffffff19169055518391906001600160a01b038416907fddf252ad1be2c89b69c2b068fc378daa952ba7f163c4a11628f55a4df523b3ef908390a45050565b6060612776848460008585843b6135955760405162461bcd60e51b815260206004820152601d60248201527f416464726573733a2063616c6c20746f206e6f6e2d636f6e74726163740000006044820152606401610c10565b600080866001600160a01b031685876040516135b19190613df3565b60006040518083038185875af1925050503d80600081146135ee576040519150601f19603f3d011682016040523d82523d6000602084013e6135f3565b606091505b509150915061360382828661360e565b979650505050505050565b6060831561361d5750816122f1565b82511561362d5782518084602001fd5b8160405162461bcd60e51b8152600401610c1091906137eb565b82805461365390613b92565b90600052602060002090601f01602090048101928261367557600085556136bb565b82601f1061368e57805160ff19168380011785556136bb565b828001600101855582156136bb579182015b828111156136bb5782518255916020019190600101906136a0565b506136c7929150613701565b5090565b5080546136d790613b92565b6000825580601f106136e7575050565b601f01602090049060005260206000209081019061131b91905b5b808211156136c75760008155600101613702565b7fffffffff000000000000000000000000000000000000000000000000000000008116811461131b57600080fd5b60006020828403121561375657600080fd5b81356122f181613716565b6001600160a01b038116811461131b57600080fd5b60006020828403121561378857600080fd5b81356122f181613761565b60005b838110156137ae578181015183820152602001613796565b838111156120cf5750506000910152565b600081518084526137d7816020860160208601613793565b601f01601f19169290920160200192915050565b6020815260006122f160208301846137bf565b60006020828403121561381057600080fd5b5035919050565b6000806040838503121561382a57600080fd5b823561383581613761565b946020939093013593505050565b60008060006060848603121561385857600080fd5b833561386381613761565b9250602084013561387381613761565b929592945050506040919091013590565b6000806040838503121561389757600080fd5b82356138a281613761565b915060208301356138b281613761565b809150509250929050565b634e487b7160e01b600052604160045260246000fd5b600067ffffffffffffffff808411156138ee576138ee6138bd565b604051601f8501601f19908116603f01168101908282118183101715613916576139166138bd565b8160405280935085815286868601111561392f57600080fd5b858560208301376000602087830101525050509392505050565b60006020828403121561395b57600080fd5b813567ffffffffffffffff81111561397257600080fd5b8201601f8101841361398357600080fd5b612776848235602084016138d3565b803560ff811681146139a357600080fd5b919050565b600080600083850360a08112156139be57600080fd5b6139c785613992565b93506139d560208601613992565b925060607fffffffffffffffffffffffffffffffffffffffffffffffffffffffffffffffc082011215613a0757600080fd5b506040516060810181811067ffffffffffffffff82111715613a2b57613a2b6138bd565b6040908152850135815260608501356020820152613a4b60808601613992565b6040820152809150509250925092565b801515811461131b57600080fd5b60008060408385031215613a7c57600080fd5b8235613a8781613761565b915060208301356138b281613a5b565b60008060008060808587031215613aad57600080fd5b8435613ab881613761565b93506020850135613ac881613761565b925060408501359150606085013567ffffffffffffffff811115613aeb57600080fd5b8501601f81018713613afc57600080fd5b613b0b878235602084016138d3565b91505092959194509250565b600060208284031215613b2957600080fd5b81356122f181613a5b565b60008060008060008060c08789031215613b4d57600080fd5b863595506020870135945060408701359350606087013592506080870135613b7481613a5b565b915060a0870135613b8481613a5b565b809150509295509295509295565b600181811c90821680613ba657607f821691505b60208210811415613bc757634e487b7160e01b600052602260045260246000fd5b50919050565b634e487b7160e01b600052601160045260246000fd5b600082821015613bf557613bf5613bcd565b500390565b60008219821115613c0d57613c0d613bcd565b500190565b6000816000190483118215151615613c2c57613c2c613bcd565b500290565b6000600019821415613c4557613c45613bcd565b5060010190565b600060208284031215613c5e57600080fd5b5051919050565b634e487b7160e01b600052603260045260246000fd5b600084516020613c8e8285838a01613793565b855191840191613ca18184848a01613793565b8554920191600090600181811c9080831680613cbe57607f831692505b858310811415613cdc57634e487b7160e01b85526022600452602485fd5b808015613cf05760018114613d0157613d2e565b60ff19851688528388019550613d2e565b60008b81526020902060005b85811015613d265781548a820152908401908801613d0d565b505083880195505b50939b9a5050505050505050505050565b634e487b7160e01b600052601260045260246000fd5b600082613d6457613d64613d3f565b500490565b600082613d7857613d78613d3f565b500690565b600060208284031215613d8f57600080fd5b81516122f181613a5b565b60006001600160a01b03808716835280861660208401525083604083015260806060830152613dcc60808301846137bf565b9695505050505050565b600060208284031215613de857600080fd5b81516122f181613716565b60008251613e05818460208701613793565b919091019291505056fea264697066735822122094ae9bc984ea9da0a4455bd59ccafe760c9eaef48605c442cb80412c5e60e8da64736f6c634300080b00334552433732313a207472616e7366657220746f206e6f6e204552433732315265",
  "linkReferences": {},
  "deployedLinkReferences": {}
}